:020000040000FA
:0600000000008301052849
:08000800090064000000203033
:1000100084008001840A60300402031D09288316CD
:10002000803090000F308100831200308B00003050
:1000300090008501831600308C00DB308500831230
:100040008501043099008316A330990028309F0061
:10005000831299309F00FF30A10005156400000055
:1000600000000000000000000511000000002D2825
:100070008D309F0000000000000000000000000024
:100080009F149F1841280800F83081000B110800C8
:10009000FF3081000B110800820710341034113436
:1000A0001234133414341534163417341834193404
:1000B0001A341B341C341D341E341F341F342034B6
:1000C000213422342334243425342634273428346C
:1000D00029342A342B342C342D342E342E342F341E
:1000E00030343134323433343434353436343734D4
:1000F000383439343A343B343C343D343D343E3486
:100100003F3440344134423443344434453446343B
:100110004734483449344A344B344C344C344D34ED
:100120004E344F34503451345234533454345534A3
:1001300056345734583459345A345B345B345C3455
:100140005D345E345F34603461346234633464340B
:10015000653466346734683469346A346A346B34BD
:100160006C346D346E346F34703471347234733473
:1001700074347534763477347834793479347A3425
:100180007B347C347D347E347F34803481348234DB
:10019000833484348534863487348834883489348D
:1001A0008A348B348C348D348E348F349034913443
:1001B00092349334943495349634973497349834F5
:1001C00099349A349B349C349D349E349F34A034AB
:1001D000A134A234A334A434A534A634A634A7345D
:1001E000A834A934AA34AB34AC34AD34AE34AF3413
:1001F000B034B134B234B334B434B534B534B634C5
:10020000B734B834B934BA34BB34BC34BD34BE347A
:10021000BF34C034C134C234C334C434C434C5342C
:10022000C634C734C834C934CA34CB34CC34CD34E2
:10023000CE34CF34D034D134D234D334D334D43494
:10024000D534D634D734D834D934DA34DB34DC344A
:10025000DD34DE34DF34E034E134E234E234E334FC
:10026000E434E534E634E734E834E934EA34EB34B2
:10027000EC34ED34EE34EF34F034F134F134F23464
:10028000F334F434F534F634F734F834F934FA341A
:0A029000FB34FC34FD34FE34FF346F
:084000000A000A000A000A0090
:02400E0004119B
:00000001FF
