:020000040000fa
:080000000001040000000000f3
:020000040000fa
:100200006ff0200080ff2000000188000000000047
:10021000050007000c000700480502000000000070
:100220000040da000000fe004440a9008060200089
:100230000000e0000300320000002000a001880060
:100240004440a8000000060040f227000100200002
:100250001600370062004000e080480091018800ed
:100260009001ba0062004000e080480091018800df
:100270009002ba0062004000e08048000002eb00fb
:100280006028e10005003a008301e900070033001f
:10029000038009000059eb00040037006128e100e9
:1002a000010032000082eb00050007009101880088
:1002b0001001ba000200e000e6ff3a00000005006d
:1002c000910188008002780062004000e0804800d0
:1002d0003559ba008301e900080032002559ba00f7
:1002e0008301e900050032000400e000f4ff320061
:1002f00015d9ba008301e900f1ff3a0000000600b9
:1003000000017800314978003204e000fdff3a0036
:1003100000000600800178000200e00007003200c3
:100320001104e00005003200b15978000201e90033
:10033000020032001104e000fbff3a000200e0007e
:10034000030032008059eb000201e900fdff3a0092
:1003500000000600800178000200e0000300320087
:10036000b15978000201e900fdff3a0000000600e3
:1003700010417800914f510006003a008001eb00d7
:100380000204e0000a00320050417800d14f5100d1
:10039000faff320010407800914f50000200310007
:1003a0000080eb0001003700100020008001780081
:1003b0000300780000000600800078001004e000d0
:1003c000020032005104e000feff3a0000805000bd
:1003d00000000600889fbe008a9fbe0001057800cd
:1003e0000100e0000400350008003c000000e000cf
:1003f000200032000500370060001000e080180087
:1004000002003b0001f02c001a0037000004be007f
:100410006011b8006b0920000982cf00020039008a
:100420000882cf000441b000694252000e00320041
:1004300008003b0082817100610164008904d100e1
:100440000884d3008b05e8000442e800f9ff3a0075
:10045000050037000804440089844c008b05e9003e
:100460000442e900fbff3a000b0107000af0a70075
:1004700001f0a0004f05be004f04be0000000600c2
:10048000889fbe008a9fbe008c1f7800280107004d
:100490002f01330003866c006450e1002e0032000f
:1004a0006420e100330032006150e1002f0032008f
:1004b0006120e1003100320085855500eb07b00076
:1004c000090020000804200005003700080444004b
:1004d00089844c000a0031000603430087834b00e7
:1004e0000001530081815b00f8ff33000203be006e
:1004f0000800a0000804440089844c00f6ff39007d
:10050000c639dd00830173000100320013002000b2
:100510008904d1000884d3000998a30005003200a3
:100520000800a7000300a0008904d1000884d300bc
:100530008b05e8008904d1000884d3000001eb009a
:100540000281d200d400070001f0a1000cf0a70046
:1005500001f0a000070137006420e100090132002a
:100560000801be000200be00f7ff37006120e10075
:10057000040132006000b800f3ff370000002000e3
:1005800001f82700f0ff3700889fbe008a9fbe0059
:100590008c1f7800e6000700ed00330003866c0036
:1005a0006450e100240032006420e10027003200a2
:1005b0006150e100220032006120e10021003200a0
:1005c0008b854200eb07b1000134b800003ab80057
:1005d0000804420089844a00013ab8000030b8009b
:1005e0008880400009014a000400330000004000f8
:1005f00081804800020149008b05e900c909dd003e
:10060000830170000100320013002000c814de00d6
:100610004814dd004709de001200b200c808de0001
:10062000088470009c00070001f0a1000cf0a700f6
:1006300001f0a000cf0037006120e100d1003200be
:100640000801be000200be00f7ff37006150e10064
:10065000fcff3a00cb0037000001be00cc000700d1
:100660000470a70003f0a1006509b1001600320074
:100670000d0035006828e10006003500f0ff2f006e
:10068000f1ff27000300e00013003b0001002800f9
:100690000000050000004000818048008502e9005c
:1006a000fcff3a0008003700f88f420002003c00cf
:1006b0008000eb00000005008100d1000080d30025
:1006c0008502e800fcff3a000300e00002003b0066
:1006d00060001000e080180000000600839f6800a2
:1006e0000100e00002003d0060001000e080180002
:1006f0000300e00002003d0060011100e0811900ec
:10070000b80007004f00e00002003b00600010004e
:10071000e08018000000060003f0a200889fbe00e1
:100720008a9fbe008c1f780081000700880033007c
:100730006450e1004f0032006420e10052003200ba
:1007400003826c0007003b000905d0000306d000bf
:10075000820f54000c065d000200390002003200d6
:1007600089017800030678008582550004003d0069
:100770000003fd008103fd008502ea008b85420035
:10078000840f720002003b0060001000e08018003f
:100790006011b8000005eb007a28e1000a0039007a
:1007a00006007800c75ddd00f707b200878075009e
:1007b0002d003700828171000a0178006105600018
:1007c0008180d1000080d3008502e900f9ff3b0061
:1007d000060440008784480002003b0060041400c7
:1007e000e0841c000988a300070032008a817100a0
:1007f00082817100610164008904d1000884d30002
:100800008b05e800170037000978a30013003a00b1
:100810000b00e000130034008b05e90008044400dd
:1008200089844c000a4474000978a3000d003a0042
:100830000b00e000070034008b05e90008044400c9
:1008400089844c0001003a000b0020000978a300c5
:10085000f7ff32000001eb000200370082817100d7
:100860000a0178000c0007000cf0a70001f0a000be
:10087000400037006420e10002003a00838f6c00e2
:10088000400033000801be000200be0039003700fe
:1008900014002000630037008100200061805500b3
:1008a0000b003d000b00200061fe2f000100e10065
:1008b0001d00340082817100610164008904d1004f
:1008c0000884d3000000e800faff3a00710020001d
:1008d0006100640003007000020060000900320043
:1008e00061044400e0844c000988a5000500320042
:1008f0008b05e8006808e10002003a008904d10095
:100900000884d300f20f20000258e10005003d00ea
:10091000c75ddd00f907b200898075000800780026
:10092000000006000bf827008b007800000005008f
:100930000004be00160007000003be000405be0050
:100940000200be0012000700844f75000000060080
:100950000200be006450e100050036006420e100a2
:10096000020036000968a30001003a000800be003a
:100970000160a0004f0678004f05be004f04be0086
:1009800000000600f0ff2f00f1ff2700f9ff3700fd
:10099000c70ade00f107b200f50fb200080032000e
:1009a000e1cf4200020032000170a00024000500e7
:1009b000810f7000010032000408050044000500aa
:1009c000810f700002003a00140005008502e90062
:1009d0000000400081c04800fcff3b000170a00007
:1009e000240005006022b800060220000000d000ac
:1009f0008180d2000482d2008582d2000000a00053
:100a00000202520083825a0003003b0002024200ad
:100a100083824a000000a1000603e900f3ff3a00c8
:100a200000000600889fbe008a9fbe00841f7800d9
:100a3000bfff07004f00780011003300f0ff2f00c8
:100a4000838f6c0006003b00040565000a00a700c8
:100a50000800370009f0a600100020000800370049
:100a6000820f5400838f5c000300390010002000c7
:100a700001003e000000200009f0a7000000ea008d
:100a80004f05be004f04be000000e000000006005d
:100a90000200fa0000c0eb00d9edb7000040eb0007
:100aa000daedb7000040eb00dbedb7000000eb0033
:100ab000e06e88000000eb00f07288000000eb00a0
:100ac000000f7800200020009e0f10000a003c005c
:100ad000f2dd20009e0041000040eb0080487800dd
:100ae00020de20009e00400000c0eb00804878001f
:100af0001e0fe800f3ff37000040eb00e8edb70001
:100b00000000eb00306f88000040eb00ecedb70018
:100b100000c0eb00ededb7000040eb00eeedb700dc
:100b20000080eb00506f88000040eb00efedb70055
:100b300000c0eb00f0edb7000040eb00f1edb700b6
:100b40000040eb00f2edb7000000eb000050880021
:100b50000000eb00105088000000eb00d05088002f
:100b60000000eb00c05088000040eb001cecb70018
:100b70000000eb00f06088000040eb0017eeb700cb
:100b80008c0e07007d0e0700c40e0700ca0e07007a
:100b9000e70e0700fd0e07007e1307000000eb00c4
:100ba000a06f88000000eb00000f780032002000ea
:100bb0009e0f11000d003c009e00780010012000e7
:100bc0000008b80002012b008000410020d920005d
:100bd000cbfd070022d920008000eb001e0078002a
:100be000681207001e0fe800f0ff3700004b2000de
:100bf000406c8800880de200feff3a000000000013
:100c0000660d0700b70c0700310d07000200070052
:100c10000060fe00faff37000200fa0020df20002b
:100c200011c0b30090cf100014003a000de2a800ec
:100c30000f42a8000000eb00c05088000000eb004d
:100c4000d05088008c80a9000040eb00f2edb70086
:100c50000040eb00f1edb700481307000040eb0047
:100c600017eeb70017cebf00981207000040eb0048
:100c7000daedb7000000eb00f0728800efcdbf00a6
:100c80000000fb00000f78001e007800e40f500009
:100c9000270032009e007800e48f500011003c00d5
:100ca0001e007800e10f50001d0032009e00780009
:100cb000e18f500004003c001e0078000000e000be
:100cc00015003200260037009e007800e28f5000a9
:100cd000150032001e007800e30f500016003200ad
:100ce0001f0037009e007800e68f5000160032008b
:100cf0001e007800e50f5000110034009e007800bf
:100d0000e78f5000120032001e007800e80f5000fc
:100d10001100320012003700a00a07001700370048
:100d2000ea070700150037000c0a07001300370018
:100d30005307070011003700c60407000f003700f3
:100d4000100007000d003700ce0107000b00370030
:100d500027030700090037006b070700070037006b
:100d6000f1102b0020d9200065fd070022d92000ba
:100d70008000eb000000eb00021207000080fa0088
:100d8000000006000e00fa00c0a12000000f78004d
:100d9000c0b1200010079800f1cdbf000000fb009b
:100da000600798006e0090000000e0000400320030
:100db000ee009000e18f50002a00320087013700da
:100dc0000de2a9008c80a8007f0407000301200029
:100dd00022db200001fe2f00f0072000391407005d
:100de000906d8000e10f400006003a000000eb002b
:100df000906d88000000eb00a06d88000000eb0003
:100e0000b06d8800c1112b0020d920003cfd0700e7
:100e100022d920008000eb000000eb00d911070070
:100e20000080eb00207388000000eb004073880016
:100e30000040eb006aeeb700f1cdbf000040e800d3
:100e4000f1edb7000000eb00506c88000000eb00f3
:100e5000606c88000000eb00706c8800db0207000b
:100e60005e0137005f0107008e0de20023003a00ab
:100e7000c0122000706c8800a1122b0020d9200025
:100e80001ffd070022d920008000eb001000200089
:100e9000bc1107000201200001c2b30020d92000cc
:100ea0006b0f070014002000130020003200200008
:100eb000916d800020d92000c80e0700140020008a
:100ec0001300200032002000a16d800070d92000a6
:100ed000c20e070014002000130020003200200082
:100ee000b16d8000c0d92000bc0e070022d92000bf
:100ef0008000eb0020002000a2110700a0e62000e7
:100f000012c0b300904f11000d003a00680ee200cd
:100f10000b003a000040eb006aeeb700020120002f
:100f200001fe2f00f0072000f3130700030120004b
:100f300002fe2f00f107200020db20001214070022
:100f4000c1508000d0508000808f50001a003200c5
:100f50005a0ee20018003a000000eb00007388000f
:100f60000000eb00f0728800c15080007004200087
:100f7000808f50000f003400c1508000900420008a
:100f8000808f50000b003c00600ee20009003a0028
:100f900010002000107388000000eb00c050880093
:100fa0000000eb00d05088000000eb0000738800c8
:100fb0000100370004040700620ee200070132005e
:100fc0000000eb00e0728800e0728000e50f500046
:100fd00001013c000000eb00200798002e0090006b
:100fe000e20f500014003c00e1728000300020004d
:100ff0000088b9002e01900082004000000420000b
:101000000088b9000340240003014000ae009000b6
:10101000000320000088b900c3b120000080410017
:1010200082007800981307002e0090000000e8006e
:1010300020079800e9ff37000000eb0000738800ec
:1010400020002000200798002e0090008000d00093
:101050001e009000008040001000e00026003200da
:10106000ae00900050092000808f500022003c000c
:10107000ae00900050092000808f500002003a001e
:1010800010002000007388002e0090000000d000a7
:101090001e0140002e0090008000d0001e00900035
:1010a000008040000119200010804000920f1000c5
:1010b0000b003e002e0090000000d0001e014000fa
:1010c0002e0090008000d0001e00900000804000a4
:1010d00003e72f0010804100920f10000200310042
:1010e00010002000007388002e0090000000e8002f
:1010f00020079800d4ff3700600ee200b2003a00eb
:101100008a0de2001b0032005c0ee200190035007f
:10111000e0728000e50f500016003c0000712200d4
:101120004073880010c0b3006aeeb7008c0de20077
:1011300018003a00307380000000d00001eb20005e
:101140000100400010007800606c8800307380005f
:101150000000d00002eb2000020040001000e00080
:101160000c003200307380000000e800307388000b
:10117000080037000000eb003073880030738000f7
:101180000000d00003eb20000300400010007800b6
:10119000606c8800a0142000506c8800e072800011
:1011a00040079800ce009000e28f500023003200ec
:1011b0004e019000e20f510007003c00ce0190006c
:1011c0000300e000130032004e009000e10f5000d9
:1011d0000b00320027003700ce009000e48f500053
:1011e000200032004e019000e30f51000e00340049
:1011f000ce019000e58f5100150032001d00370030
:101200000000eb002073880030002000e0728800ae
:10121000180037000000eb00207388004000200019
:10122000e07288001300370010002000207388004f
:1012300030002000e07288000e003700100020000f
:101240002073880040002000e07288000900370009
:10125000200020002073880030002000e072880009
:101260000400370020002000207388004000200088
:10127000e0728800e072800050079800de00900065
:10128000e38f5000040032005e019000e40f510033
:10129000280032004c003700207380000000d0008e
:1012a00023db200083004000f00f2000910f10008e
:1012b0004900320020738000e10f400046003200f8
:1012c000207380000000d00021db200001014000dd
:1012d000207380000000d00023db2000830040004a
:1012e000307380000000d00083ed20000300400038
:1012f0009100780010894000207380000000d00029
:1013000022db200082004000f00f2000910f10002f
:1013100006003400207380000000d00023db200092
:1013200083004000f00f200080087800a70107002c
:1013300029003700207380000000d00021db20004e
:10134000010040001000e000230032002073800004
:10135000e10f400020003200207380000000d00028
:1013600023db200003014000207380000000d00038
:1013700023db200083004000307380000000d00099
:1013800083ed200003004000910078001089500098
:10139000207380000000d00021db2000010040000d
:1013a0001000e00006003d00207380000000d00027
:1013b00022db2000820040000000eb008008780063
:1013c0008201070004003700e07280000000e8009e
:1013d000e0728800fcfe3700fb0207000080fa0084
:1013e000000006000000fa008e0de20023003a0023
:1013f000c0122000706c8800a1122b0020d92000a0
:10140000bffb070022d920008000eb001000200065
:101410005c1007000201200001c2b30020d92000a7
:101420000b0e0700140020001300200032002000e3
:10143000916d800020d92000680d07001400200065
:101440001300200032002000a16d800070d9200020
:10145000620d07001400200013002000320020005d
:10146000b16d8000c0d920005c0d070022d920009a
:101470008000eb0020002000421007000080fa00ee
:10148000000006000c00fa00c0a12000000f780048
:10149000c0b1200010079800f1cdbf000000fb0094
:1014a000500798005e0090000000e0000400320049
:1014b000de009000e18f50002a0032004101370029
:1014c0000de2a9008c80a800bf02070003012000e4
:1014d00022db200001fe2f00f00720007912070018
:1014e000906d8000e10f400006003a000000eb0024
:1014f000906d88000000eb00a06d88000000eb00fc
:10150000b06d8800b1132b0020d920007cfb0700b0
:1015100022d920008000eb000000eb00191007002a
:101520000080eb00207388000000eb00407388000f
:101530000040eb006aeeb700f1cdbf000040e800cc
:10154000f1edb7000000eb00506c88000000eb00ec
:10155000606c88000000eb00706c88001b010700c5
:10156000180137009fff0700a0e6200012c0b3005b
:10157000904f11000d003a00680ee2000b003a0097
:101580000040eb006aeeb7000201200001fe2f00d0
:10159000f0072000581207000301200002fe2f0070
:1015a000f107200020db200077120700c1508000e7
:1015b000d0508000808f5000190032005a0ee20097
:1015c00017003a000000eb00007388000000eb00f9
:1015d000f0728800c0508000e40f50000f0034000b
:1015e000c1508000b0032000808f50000b003c00f1
:1015f000600ee20009003a0010002000107388001d
:101600000000eb00c05088000000eb00d0508800c4
:101610000000eb0000738800010037006a02070039
:10162000620ee200e70032000000eb00e07288008a
:10163000e0728000e40f5000e1003c000000eb008d
:10164000200798002e009000e20f500014003c008c
:10165000e1728000300020000088b9002e01900067
:1016600082004000000420000088b90003a024008c
:1016700003014000ae009000000320000088b90084
:10168000c3b120000080410082007800fe110700f5
:101690002e0090000000e80020079800e9ff3700c6
:1016a0000000eb0000738800200020002007980055
:1016b0002e0090008000d0001e00900000804000ae
:1016c0001000e00026003200ae009000f00720007d
:1016d000808f500022003c00ae009000f0072000f8
:1016e000808f500002003a00100020000073880034
:1016f0002e0090000000d0001e0140002e0090003f
:101700008000d0001e0090000080400001192000e1
:1017100010804000920f10000b003e002e00900041
:101720000000d0001e0140002e0090008000d0007c
:101730001e0090000080400003e72f001080410051
:10174000920f10000200310010002000007388008a
:101750002e0090000000e80020079800d4ff37001a
:10176000600ee20092003a008a0de2001c00320096
:10177000e0728000e30f500003003200e07280004e
:10178000e40f500016003a000071220040738800f8
:1017900010c0b3006aeeb7008c0de20018003a00ea
:1017a000307380000000d00061e92000010040009b
:1017b00010007800606c8800307380000000d0005a
:1017c00062e92000020040001000e0000c0032003e
:1017d000307380000000e800307388000800370094
:1017e0000000eb0030738800307380000000d000f0
:1017f00063e920000300400010007800606c88005e
:1018000040062000506c8800e0728000400798007d
:10181000ce009000e28f5000170032004e01900081
:10182000e20f510007003c00ce0190000300e000f1
:101830000b0032004e009000e10f50000b00320010
:101840005b003700ce009000e38f50000d003200a7
:101850004e019000e40f5100310032005400370077
:101860000000eb00207388005100370010002000ba
:10187000207388004e00370020002000207388006d
:101880004b00370020738000e10f40004800320019
:10189000207380000000d00023db20008300400084
:1018a000f00f2000910f10004100320020738000e3
:1018b0000000d00021db20000101400020738000e7
:1018c0000000d00023db2000830040003073800044
:1018d0000000d00023ea20000300400091007800bf
:1018e00010894000207380000000d00022db20001f
:1018f00082004000f00f2000910f1000060034001d
:10190000207380000000d00023db20008300400013
:10191000f00f2000800878002c000700240037001a
:1019200020738000e10f400021003200207380000e
:101930000000d00021db2000010040001000e0008a
:101940001b003200207380000000d00023db200049
:1019500003014000207380000000d00023db200042
:1019600083004000307380000000d00023ea200094
:10197000030040009100780010895000207380001f
:101980000000d00021db2000010040001000e0003a
:1019900006003d00207380000000d00022db200004
:1019a000820040000000eb0080087800070007007c
:1019b000e07280000000e800e07288001cff370041
:1019c000810107000080fa00000006000000fa0014
:1019d0000002eb00b36d8000a26d8000916d80006d
:1019e000f00f2000f20807000080fa000000060057
:1019f0000600fa00f1cdbf000000fb0020079800b0
:101a00002e009000e40f50007b003200ae009000ea
:101a1000e48f500011003c002e019000e10f5100b6
:101a20003b003200ae019000e18f510004003c0009
:101a30002e0090000000e000150032006001370029
:101a4000ae009000e28f5000440032002e01900062
:101a5000e30f51005300320059013700ae019000ee
:101a6000e68f5100cb0032002e009000e50f5000b1
:101a7000c5003400ae009000e78f5000d700320060
:101a80002e019000e80f5100e90032004c013700b0
:101a900091142b0020d9200019fa070022d9200028
:101aa0008000eb000000eb00b60e070081152b0054
:101ab00020d9200012fa070022d920008000eb0074
:101ac00010002000af0e070021162b0020d92000a7
:101ad0000bfa070022d920008000eb002000200034
:101ae000a80e070001172b0020d9200004fa0700d8
:101af00022d920008000eb0030002000a10e07005a
:101b0000f1cdbf000040e800f1edb7002c01370037
:101b1000a0dd200013c0b30090cf110028013a00cf
:101b20000040eb00daedb70080dd200011c0b3000b
:101b300090cf100002003a0020c0b300f1edb700d2
:101b400080dd200022c0b300904f11001c013a003c
:101b500060c0b300f1edb700190137000de2a90034
:101b60008c80a800850f070001182b0020d92000c9
:101b7000e3f9070022d920008000eb000000eb0011
:101b8000800e07000000eb00e07288000000eb0010
:101b9000406c8800f1cdbf000040e800f1edb700d7
:101ba00007013700e1728000100120000008b80032
:101bb00043052b008080410020d92000d0f9070088
:101bc00022d920008000eb00100020006d0e0700dd
:101bd000f1cdbf000040e800f1edb700fa000700ca
:101be000e0728000e50f5000f500340050c0b300f3
:101bf000f1edb700f2003700c1508000d0508000f6
:101c0000808f5000ee0032005a0ee200ec003a00e5
:101c10000000eb00f0728800c0508000e40f50001c
:101c200045003400c1508000b0032000808f500078
:101c300041003c00600ee2003f003a00c02b200053
:101c4000406c880010002000430e070011192b0083
:101c500020d92000aaf9070022d920008000eb003b
:101c600010002000470e0700880de200feff3a003a
:101c700010002000380e07000000eb00100798004d
:101c80001e009000e20f500014003c00e172800042
:101c9000300020000088b9001e0190008200400042
:101ca000000420000088b90003a0240003014000c4
:101cb0009e009000000320000088b900c3a120000e
:101cc0000080410082007800401007001e00900054
:101cd0000000e80010079800e9ff3700e07280007c
:101ce0000000e800e072880030c0b300f1edb700fa
:101cf000e0728000e50f50000c003a001000200058
:101d0000150e070051192b0020d920007cf907007f
:101d100022d920008000eb0010002000190e0700df
:101d2000f0c0b300f1edb700a5003700200020009f
:101d3000f0728800a2003700c02b2000406c8800a1
:101d400010002000040e0700d1192b0020d920001c
:101d50006bf9070022d920008000eb001000200062
:101d6000080e0700880de200feff3a001000200078
:101d7000f90d070020002000f072880030c0b30089
:101d8000f1edb7008e0037000000eb00f072880024
:101d90008b0037000de2a9008c80a800f70e070029
:101da000711a2b0020d9200055f9070022d92000f4
:101db0008000eb000000eb00f20d07000000eb00dc
:101dc000e07288000000eb00406c8800f1cdbf009d
:101dd0000040e800f1edb70079003700e1728000c3
:101de000100120000008b800920a2b00800041007a
:101df00020d9200042f9070022d920008000eb0002
:101e000010002000df0d0700f1cdbf000040e8000a
:101e1000f1edb7006c000700e0728000e60f5000a3
:101e20006700340060c0b300f1edb7006400370014
:101e3000c1508000d0508000808f50006000320080
:101e40005a0ee2005e003a000000eb00f0728800db
:101e5000c150800060042000808f50004500340095
:101e6000c1508000b0042000808f500041003c0031
:101e7000600ee2003f003a00c02b2000406c88005a
:101e800010002000b40d070011192b0020d92000ec
:101e90001bf9070022d920008000eb001000200071
:101ea000b80d0700880de200feff3a001000200088
:101eb000a90d07000000eb00100798001e0090001d
:101ec000e20f500014003c00e1728000300020005e
:101ed0000088b9001e01900082004000000420002c
:101ee0000088b90003402400030140009e009000d8
:101ef000000320000088b900c3a120000080410039
:101f000082007800b10f07001e0090000000e8007a
:101f100010079800e9ff3700e07280000000e80039
:101f2000e072880070c0b300f1edb700e07280008d
:101f3000e60f50000c003a0010002000860d07004c
:101f400051192b0020d92000edf8070022d92000dc
:101f50008000eb00100020008a0d0700f0c0b300e5
:101f6000f1edb7001600370020002000f072880065
:101f700013003700c0122000406c880010002000c1
:101f8000750d0700d1192b0020d92000dcf80700bf
:101f900022d920008000eb0010002000790d0700fe
:101fa000880de200feff3a00100020006a0d0700d5
:101fb00020002000f072880070c0b300f1edb7007f
:101fc0000080fa00000006000200fa000000eb00aa
:101fd000000f7800f00f20009e0f100006003c005c
:101fe000c0a120009e0040000040eb008048780027
:101ff0001e0fe800f7ff37000000eb00000f78002d
:10200000f00f20009e0f100006003c00c0b1200021
:102010009e0040000040eb00804878001e0fe80062
:10202000f7ff37000000eb00c05088000000eb0015
:10203000d05088000000eb000073880020002000d2
:10204000f07288000000eb00107388000080fa0036
:10205000000006000800fa00889fbe000000eb00a8
:10206000000f7800ee4de2005400320010df200037
:1020700021c0b30090cf100022003a00a06b800076
:10208000b16b8000e00f5000e08f58000c00320070
:10209000230d0700cff807000004be00a06b8000ee
:1020a000b16b8000cbf807000001be000800be0045
:1020b000f3f80700206c8800316c880004003700ba
:1020c0000000200001f02300206c8800316c8800a3
:1020d000c06180004d040700606b8800716b880050
:1020e000606b8000716b8000baf80700226c800082
:1020f000336c800024f9070057f907000e0d070024
:1021000021003700c06b8000d16b8000e00f5000d1
:10211000e08f58000c003200010d0700adf80700f9
:102120000004be00c06b8000d16b8000a9f80700de
:102130000001be000800be00d1f80700206c880036
:10214000316c8800040037000000200001f02300fb
:10215000206c8800316c8800d0618000600407002a
:10216000806b8800916b8800806b8000916b800091
:1021700098f80700226c8000336c800002f9070099
:1021800035f90700ec0c07000040eb00eeedb7005e
:10219000eccdbf008000fb00140020008001eb00ac
:1021a0003200200020d920000c0a070022d920008c
:1021b0002100200010002000f20c07008a0de20030
:1021c00043003a00f14de20041003200800c200053
:1021d000506c8800711b2b0020d9200048f80700a4
:1021e00018cebf008080fb001400200013002000e8
:1021f0002200200070d92000f809070019cebf0086
:102200008080fb001400200013002000220020002a
:1022100000da2000f109070022d920008000eb003d
:1022200020002000d70c0700811c2b0020d92000a3
:1022300033f80700ba0c0700823e2000030020009c
:1022400026f9070020079800140020001300200042
:1022500042002000ae00900040d92000df090700b6
:10226000af0c070042062000030020001bf9070006
:10227000a2002000110009000200d8008000fd002b
:1022800020079800140020001300200012002000f6
:10229000ae00900090d92000d009070010df200088
:1022a00022c0b300904f110003003a0040c4b300b5
:1022b00092edb7000200370040c5b30092edb700c1
:1022c00022d920008000eb0030002000ad0c070078
:1022d000f1cdbf000000fb0030079800be01900068
:1022e000e18f5100710032003e009000e10f50007c
:1022f00004003c00be0090000100e0000800320035
:10230000630137003e019000e20f51008600320069
:10231000be019000e38f5100b90032005c0137002c
:102320009e007800000420000088b900020025000b
:1023300082004000c0b12000d30e07001fcbbf00b9
:102340001aeeb70020c3b3001a4ee30048003e0067
:102350000000eb00000f78001acebf000080fb00e9
:102360009e0f100007003d00c3e120009e80410049
:1023700082b220001e004100904878001e0fe80045
:10238000f5ff3700920020008040eb00e0e42000e1
:102390002f0a07008200200001b22000e0e42000a4
:1023a000dcf707001ecbbf001beeb700911d2b0012
:1023b00020d92000d2f7070022d920008000eb00ae
:1023c0000000eb006f0c0700e2e420005100200049
:1023d0000000eb006b0c0700f11d2b0020d9200042
:1023e000c7f70700eccdbf008000fb001400200001
:1023f000130020003200200040d920007709070098
:102400001bcebf008080fb001400200013002000c2
:1024100022002000b0d92000700907001acebf00aa
:102420008080fb0014002000130020002200200008
:1024300000da20006909070022d920008000eb00a3
:10244000100020004f0c07001bcebf0018eeb70095
:102450000040eb0019eeb7000000eb00506c880064
:10246000f1cdbf000040e800f1edb70008013700f2
:10247000011f2b0020d92000a1f7070022d920003e
:102480008000eb000000eb003e0c0700f11f2b006a
:1024900020d920009af7070022d920008000eb0005
:1024a00010002000370c0700f900370080e1200001
:1024b0006501070090e120006301070018cebf000e
:1024c0000080fb0081c32000f400070019cebf008c
:1024d0000080fb0021cd2000f00007000000eb0091
:1024e000c0728800c061800048030700606b8800ec
:1024f000716b8800d061800079030700806b8800d1
:10250000916b8800606b8000716b80000a0c070083
:1025100040002000406c8800f1cdbf000040e80082
:10252000f1edb700da003700fd0b0700e00f5000b7
:10253000e08f580009003a00806b8000916b8000aa
:10254000fd0b07000000eb00c0728800f1cdbf005a
:102550000040e800f1edb700cd003700880de20043
:10256000cb003a0040002000406c8800c17280001f
:10257000300020000008b800e3c320000300400042
:102580001081fb00c1728000300020000008b800fc
:10259000d3c32000030040009082fb00c172800082
:1025a000300020000008b800c3c320000300400032
:1025b0009080fb00c0728000c3e120000300400057
:1025c0001080fb000002eb0082017800050178001a
:1025d000f7050700c07280000000e800c0728800a4
:1025e0001acebf008080fb00c0728000810f5000b7
:1025f000a70035000000eb00c0728800a40037007f
:102600000150800010508000808f5000a0003a00e0
:10261000c30b0700e00f5000e08f580003003a00a2
:1026200010c0b300f1edb70099003700806b800057
:10263000916b800067f70700006c8800116c8800c0
:10264000b70b070063f707000001be00006c8000b5
:10265000116c800030f80700026c8000136c800061
:1026600087f70700206c8800316c88000000eb00c1
:10267000100798001acebf008080fb001e0090005b
:10268000810f500021003d000000eb00000f78009a
:10269000200020009e0f100018003c009e009000bb
:1026a000300020000008b8001e004000c1a120003a
:1026b000010440009e009000300020000008b80097
:1026c0001e00400063cd2000030140009e009000ea
:1026d000300020000008b8001e004000c1c32000e8
:1026e0000100400092407800104078006e0307001f
:1026f000004c78001e0fe800e5ff37001e00900038
:102700000000e80010079800daff37000000eb0037
:10271000100798001acebf008080fb001e009000ba
:10272000810f500045003d009e00900030002000c9
:102730000008b800c3b12000030140009e009000d3
:10274000300020000008b800c3a1200003004000b2
:1027500012417800904f51001a003a009e009000fc
:10276000300020000008b800d3b120000301400071
:102770009e009000300020000008b800d3a1200087
:102780000300400012417800904f51000d003a00c4
:102790009e009000300020000008b800e3b1200047
:1027a000030140009e009000300020000008b800a7
:1027b000e3a120000300400012417800904f510037
:1027c0001a0032009e009000300020000008b8007f
:1027d000e2a12000020040001081fb009e0090005a
:1027e000300020000008b800d3a120000300400002
:1027f0009082fb009e009000300020000008b8008e
:10280000c3a12000030040009080fb001e00900048
:10281000c3e12000030040001080fb0014002000f2
:102820008201780005017800610507001e00900014
:102830000000e80010079800b6ff37000000eb002a
:10284000000f78001acebf008080fb00300020000f
:102850000088b9009e0f100007003d00c0b12000a5
:102860009e004000c2a120001e0041009048780058
:102870001e0fe800f3ff3700140020008001eb007a
:102880000001eb008000eb00f00f2000480507007e
:102890004f04be000080fa00000006001200fa009b
:1028a000000f7800110798001acebf000080fb00cf
:1028b0006c004000000f98001acebf008080fb0023
:1028c000300020000088b9006400400070079800c4
:1028d0009e0078007e0090000088b9000e099000ec
:1028e00000004100200798002e0090000206200002
:1028f000110009000200d800300798002e00900057
:1029000002062000110009000200d8008000fd002e
:10291000400798000000eb0050079800be009000b0
:10292000000420000088b900020025008200400059
:10293000c0b12000540d0700010620004e00900099
:10294000008150004e009000c3b120008080410003
:102950001e0090007ff60700fe0090004e009000e1
:102960000080400001fa2f0001004000700798002d
:10297000010620004e009000008050005007980093
:102980007e00900002062000110009000200d8001d
:102990000000e000170034003e0090000000e80056
:1029a0008000780031079800000420000088b900fa
:1029b0000200250082004000c0b12000320d070057
:1029c0009e0090005e009000008040000206200003
:1029d000c1b120005ff607007e00900003fa2f00cf
:1029e00003004000700798005e0090000006b000f1
:1029f000500798007e0090000000e00010003400b6
:102a00003e0090000000e800800078003107980048
:102a1000000420000088b900020025008200400068
:102a2000c0b12000180d07009e0090005e009000cd
:102a3000008040007e019000c1b1200045f60700f3
:102a40000080fa00000006000200fa00000f780083
:102a50001e0078001048e8009e007800b0e12000d9
:102a60009140780090cf5000030039009e0078001c
:102a70000040eb00804878000080fa00000006006b
:102a80000400fa00f1cdbf000000fb001007980021
:102a90001e0090000000e000040032001e009000c4
:102aa000e10f50001500320015003700d1202b0037
:102ab00020d9200012f6070022d920008000eb0068
:102ac0000000eb00af0a0700b1212b0020d9200045
:102ad0000bf6070022d920008000eb001000200038
:102ae000a80a0700f1cdbf000040e800f1edb700f3
:102af0000040eb001cecb70001003700df080700c6
:102b00000080fa00000006000400fa00f1cdbf00ca
:102b10000000fb00100798001e009000e10f50001d
:102b2000380032001e009000e10f500004003c000d
:102b30001e0090000000e000080032006100370035
:102b40001e009000e20f5000300032001e00900086
:102b5000e30f5000390032005a003700c1222b0029
:102b600020d92000e6f5070022d920008000eb00e4
:102b70000000eb00830a0700c1232b0020d92000ae
:102b8000dff5070022d920008000eb0010002000b4
:102b90007c0a0700c1242b0020d92000d8f50700ab
:102ba00022d920008000eb0020002000750a0700d9
:102bb000f1cdbf000040e800f1edb7000040eb00b0
:102bc00012eeb7000040eb0013eeb7000040eb0040
:102bd00016eeb70030c0b30014eeb70040c0b3002b
:102be000f6edb7000040eb00f7edb700c1252b0074
:102bf00080df2000c2f507000040eb00fdedb700cc
:102c000030003700580307002e00370081df200016
:102c100010262b00d6f507000000e00004003a0063
:102c2000f1cdbf000040e800f1edb700250037000e
:102c30000040eb00f1edb700220037000040eb0050
:102c400017eeb70017cebf00a00a07004b0b070016
:102c500061262b0020d92000a9f5070022d92000e9
:102c60008000eb000000eb00460a070061272b0004
:102c700020d92000a2f5070022d920008000eb0017
:102c8000100020003f0a070031282b0020d9200027
:102c90009bf5070022d920008000eb0020002000d7
:102ca000380a070041292b0020d9200094f507009d
:102cb00022d920008000eb0030002000310a0700fc
:102cc000d03307000080fa00000006000400fa007c
:102cd000889fbe00ee4de2005400320010df20005d
:102ce00021c0b30090cf100022003a00a06b8000fa
:102cf000b16b8000e00f5000e08f58000c003200f4
:102d0000070a0700b3f507000004be00a06b8000af
:102d1000b16b8000aff507000001be000800be00e7
:102d2000d7f50700206c8800316c8800040037005c
:102d30000000200001f02300206c8800316c880026
:102d40000061800031010700606b8800716b8800b2
:102d5000606b8000716b80009ef50700226c800024
:102d6000336c800008f607003bf60700f209070005
:102d700021003700c06b8000d16b8000e00f500055
:102d8000e08f58000c003200e509070091f50700bc
:102d90000004be00c06b8000d16b80008df5070081
:102da0000001be000800be00b5f50700206c8800d9
:102db000316c8800040037000000200001f023007f
:102dc000206c8800316c880010618000440107008d
:102dd000806b8800916b8800806b8000916b800015
:102de0007cf50700226c8000336c8000e6f507005c
:102df00019f60700d00907000040eb00eeedb70020
:102e0000eccdbf008000fb00140020008001eb002f
:102e10003200200020d92000f006070022d920002f
:102e2000710020000000eb00d60907008a0de200c7
:102e300033003a00800c2000506c880018cebf0090
:102e40008080fb00140020008001eb0022002000a5
:102e500020d92000e106070022d92000e10020004f
:102e60000000eb00c70907000000eb00000f78002e
:102e7000200020009e0f100021003c00112a2b0092
:102e800020d920001ef5070041c220001e8040000e
:102e90009080fb001400200013002000320020006e
:102ea00020d92000cd06070041c320001e8040002d
:102eb0009080fb001400200013002000320020004e
:102ec00070d92000c5060700c1c220001e80400046
:102ed0009080fb001400200013002000320020002e
:102ee000c0d92000bd0607001e00e80022d920003e
:102ef00021002000a30907001e0fe800dcff3700b7
:102f0000f1cdbf000000fb00100798001e009000ec
:102f1000e10f5000340032009e009000e18f50001d
:102f200004003c001e0090000000e0000800320099
:102f3000b30037009e009000e28f50006c0032001a
:102f40001e009000e30f500078003200ac00370004
:102f5000f12a2b0020d92000e9f4070022d9200013
:102f60008000eb000000eb0086090700e12b2b003e
:102f700020d92000e2f4070022d920008000eb00d5
:102f8000100020007f09070070c4b30092edb70065
:102f900022d920008000eb002000200079090700e2
:102fa00020c4b30092edb70022d920008000eb00ce
:102fb00030002000730907000040eb0018eeb70056
:102fc00010c0b30019eeb70010c0b300eeedb700ab
:102fd000f1cdbf000040e800f1edb7006000b8009f
:102fe000550907008600370018cebf008080fb001f
:102ff00000c2200056070700200ce20002003a0041
:10300000220ce2000600320000618000e10f400067
:103010000300320010618000e10f400006003a001a
:103020000040eb0018eeb70018cebf008080fb0018
:1030300000c220004607070019cebf008080fb00b9
:1030400080c2200042070700280ce20002003a007c
:103050002a0ce2000600320040618000e10f4000cf
:103060000300320050618000e10f400006003a008a
:103070000040eb0019eeb70019cebf008080fb00c6
:1030800080c2200032070700006180005f00070057
:10309000606b8800716b880026ccbf008081fb00cc
:1030a00025ccbf000081fb0024ccbf008080fb004a
:1030b0000002eb00f00f20003d03070024ccbf000e
:1030c00034ecb70025ccbf0035ecb70026ccbf00f0
:1030d00036ecb700606b8000716b8000160907004a
:1030e000f1cdbf000040e800f1edb700440037002b
:1030f0000b090700e00f5000e08f580040003a0035
:103100001061800076000700806b8800916b88005a
:10311000806b8000916b800007090700f1cdbf0034
:103120000040e800f1edb700350037001150800095
:1031300000508000808f500031003a00f8080700ee
:10314000e00f5000e08f580013003a0018cebf0087
:103150000040e80018eeb70019cebf000040e800bc
:1031600019eeb70030c6b300184ee3000200360077
:103170000040eb0018eeb70030c6b300194ee30074
:10318000020036000040eb0019eeb70010c0b3009b
:10319000f1edb7001a0037000000eb00000f7800d7
:1031a000210020009e8f10000c003c0040c3200036
:1031b0001e044000c1c220001e80400041c2200009
:1031c0001e8140009040780012407800790007008e
:1031d000004c78001e0fe800f1ff370036ccbf002e
:1031e0008081fb0035ccbf000081fb0034ccbf00e8
:1031f0008080fb000002eb00f00f2000ec020700d3
:103200004f04be000080fa00000006000a00fa0029
:10321000889fbe00000f78001e00e00004003a0006
:103220006000b80030079800410798002700370079
:103230001e007800cf80de0066f407000200200048
:10324000832c2400d0f407000004be00eccdbf00a6
:103250000000fb00cf80de005ef407000001be002e
:103260000800be00c8f40700a2702d0033c223007e
:10327000c5f40700100798002107980002002000fd
:10328000832c24001e009000ae00900080f5070003
:103290000000e00004003d0000002000812c24001c
:1032a00010079800210798001e009000ae009000c3
:1032b000e9f40700a06b8800b16b8800a06b800068
:1032c000b16b800030079800410798003e009000e5
:1032d000ce0090004f04be000080fa0000000600ff
:1032e0000a00fa00889fbe00000f78001e00e00070
:1032f00004003a006000b8003007980041079800c9
:10330000270037001e007800cf80de0031f4070070
:1033100002002000832c24009bf407000004be0060
:10332000eccdbf000000fb00cf80de0029f40700d9
:103330000001be000800be0093f40700a2702d003b
:1033400033c2230090f4070010079800210798006b
:1033500002002000832c24001e009000ae0090008c
:103360004bf507000000e00004003d0000002000d5
:10337000812c240010079800210798001e0090005f
:10338000ae009000b4f40700c06b8800d16b8800d9
:10339000c06b8000d16b8000300798004107980017
:1033a0003e009000ce0090004f04be000080fa0066
:1033b000000006000c00fa00004f7800114798004a
:1033c000806b8000916b8000e00f5000e08f580010
:1033d00004003a001e4090000080fb005007980057
:1033e0002e003700806b8000916b8000f9f307009e
:1033f000006c8800116c880049080700f5f307008d
:103400000001be00006c8000116c8000c2f4070057
:10341000026c8000136c800019f40700206c880097
:10342000316c88001e4090008080fb001e80fb00f5
:1034300000805000200798002e009000cf80de0012
:10344000e4f307003007980041079800226c8000e1
:10345000336c80003e009000ce0090004af40700dc
:10346000020020000312240047f407007af407004a
:10347000100798001e009000e10407001007980054
:103480009e80fb001e009000010040001007980085
:103490002e4090000080fb00500798005e009000d6
:1034a0000080fa00000006000c00fa00004f7800cf
:1034b00011479800806b8000916b8000e00f5000f6
:1034c000e08f580004003a001e4090000080fb008e
:1034d000500798001e0037001e4090008080fb00bf
:1034e0001e80fb0000805000200798002e009000f6
:1034f000cf80de00b7f3070030079800410798003f
:10350000226c8000336c80003e009000ce00900062
:103510001df4070002002000031224001af4070023
:103520004df40700100798001e009000b404070037
:10353000100798009e80fb001e00900001004000d4
:10354000100798002e4090000080fb005007980064
:103550005e0090000080fa00000006000600fa00fd
:10356000f1cdbf000000fb00200798002e00900066
:10357000e10f500016003200ae019000e18f5100c3
:1035800004003c002e0090000000e0000500320026
:1035900080003700ae019000e28f51002800320019
:1035a0007c003700e12c2b0020d9200054f30700c9
:1035b00022d92000410020000000eb00f1070700a5
:1035c000f1cdbf000040e800f1edb7007100370019
:1035d000c1508000d0508000808f50006d003200bc
:1035e000a2a120001200780080007800c3a1200072
:1035f0008380400091407800214798000000e80057
:1036000000097800d1508000f00f20000080600099
:10361000d05088002e4090000004e0005d003d0086
:103620002e4090001cebb70010002000f0608800d6
:10363000f1cdbf000040e800f1edb70055003700c4
:10364000c1508000d0508000808f50005100320067
:10365000a2a120001200780080007800c3a1200001
:103660008380400091407800214798000000e800e6
:1036700000097800d1508000f00f20000080600029
:10368000d05088002e4090000004e00006003d006d
:103690002e4090000074a1001cebb7001000200029
:1036a000f06088003b003700f0608000e30f5000be
:1036b0000a003c00e2c1200012007800800078007f
:1036c000c3b1200083804000ae4190008348780061
:1036d0000000e800000978002e0037001ccbbf0076
:1036e0000074a1001cebb7002e4090000000fb000e
:1036f000610060000000e000040032001dcbbf004c
:1037000001c8b300014070001debb7002e409000cf
:103710000000fb00620060000000e00004003200d6
:103720001ecbbf0001c8b300014070001eebb70004
:103730002e4090000000fb00640060000000e000ec
:10374000040032001fcbbf0001c8b300014070006d
:103750001febb7001fcbbf000081fb001ecbbf00db
:103760008082fb001dcbbf008080fb001ccbbf0014
:103770000080fb000002eb00820178000501780068
:103780008b0107000000eb00f060880010c0b30060
:10379000f1edb7000080fa00000006000400fa0016
:1037a000f1cdbf000000fb00100798001e00900044
:1037b0000000e000040032001e009000e10f500005
:1037c00036003200660037000040eb0017eeb7000d
:1037d000a1122b0020d92000c9f2070022d9200015
:1037e0008000eb000000eb0066070700612d2b0056
:1037f00020d92000c2f2070022d920008000eb006f
:10380000200020005f07070010c0b300e8edb700fc
:10381000f1cdbf000040e800f1edb7000040eb0043
:1038200012eeb7000040eb0013eeb7000040eb00d3
:1038300016eeb70030c0b30014eeb70020c0b300de
:10384000f6edb7000040eb00f7edb700712e2b004e
:1038500080df2000aaf2070040c0b300fdedb700f2
:1038600050c0b300feedb700c1252b00f0df2000f3
:10387000a3f2070040c0b30004eeb700b0c0b3002d
:1038800005eeb700c1252b0060e020009cf2070088
:103890000040eb000beeb70031003700e84de200ce
:1038a00002003a00ee4de2002c0032000000eb0076
:1038b000000f78000040eb00e8edb7000040eb009f
:1038c000eeedb7000201200001c2b30020d92000b4
:1038d000df040700dfcdbf008080fb001400200064
:1038e000130020003200200020d920003b040700f4
:1038f000e0cdbf008080fb001400200013002000fa
:103900003200200070d9200034040700e1cdbf0050
:103910008080fb00140020001300200032002000f3
:10392000c0d920002d040700e1cdbf008081fb003d
:10393000e0cdbf000081fb00dfcdbf008080fb0039
:103940000002eb00f00f20001901070022d920002f
:103950008000eb00100020000a07070002000700ab
:103960000080fa00000006000400fa0012cebf003a
:103970000080fb00100798001e009000e10f50002f
:10398000130032009e009000e18f50006f003c0059
:103990001e0190000200e0006c003a0012cebf0051
:1039a0000040e80012eeb700c500070010c0b300e9
:1039b00017eeb7000040eb0015eeb7000040eb003b
:1039c00016eeb70017cebf00400707005f003700b4
:1039d000da4de2005d0032000040eb00daedb700a6
:1039e000d84de2001200350080dd200091c0b30008
:1039f00090cf10000e003c0015cebf000081fb00f0
:103a000013cebf008080fb00700020000008b800cb
:103a10000000410082df200082004000d8cdbf00be
:103a200002c3b300824840004a000700a400070018
:103a300080dd2000f1c0b30090cf100004003a00f8
:103a40000040eb00f1edb7000040eb0012eeb700d4
:103a500080dd2000e2c0b300904f110031003a0039
:103a6000ef4de20028003a0080df2000d704070075
:103a7000000f7800f0df2000d40407000061880008
:103a800060e02000d104070010618800dfcdbf0096
:103a900024ecb700e0cdbf0025ecb700e1cdbf00be
:103aa00026ecb7009e00780000c2200080040700ca
:103ab0009e00780000c32000a50407002006200017
:103ac0009e0f100001003c001e0fe8000002eb00fa
:103ad0008001eb00220020009e00780080df2000a3
:103ae000be03070010c0b30013eeb7000040eb00a8
:103af00015eeb700801f7800fecdbf0016eeb700b0
:103b00004f0078006e000700f0de200081c0b30097
:103b100090cf100003003a00f1cdbf000040e80054
:103b2000f1edb70080dd2000c2c0b300904f11005e
:103b300001003a003c00070080dd2000d1c0b30046
:103b400090cf100001003a00020007000080fa0048
:103b5000000006000000fa0015cebf000040e8009b
:103b600015eeb70013cebf008080fb007000200070
:103b70000008b80062df20008200400050e1200011
:103b800010407800914f50001800390013cebf004c
:103b90000040e80013eeb7000040eb0015eeb70060
:103ba00013cebf008080fb00700020000008b8002a
:103bb00062df2000020040001004e0000b003a0029
:103bc00013cebf000040e90013eeb70013cebf00d4
:103bd0008080fb00700020000008b80062df200039
:103be000020040001040e90015eeb70013cebf0000
:103bf0008080fb00700020000008b80072df200009
:103c00008200400015cebf001140400016eeb70004
:103c100041e120009140780016cebf007f060700ea
:103c20000080fa00000006000000fa0015cebf0078
:103c30000040e90015eeb70050e1200080c0eb0025
:103c400090cf10000f003a000040eb0015eeb700d7
:103c5000134ee2000b00320013cebf000040e9001b
:103c600013eeb70013cebf008080fb007000200071
:103c70000008b80062df2000020040001040e900a8
:103c800015eeb70013cebf008080fb00700020004f
:103c90000008b80072df20008200400015cebf008f
:103ca0001140400016eeb70041e12000914078003d
:103cb00016cebf00590607000080fa00000006007b
:103cc0000600fa000000eb00000f7800020120005f
:103cd00001c2b30020d92000dd0307009e00780058
:103ce000700020000008b80062df200002004000e1
:103cf0001004e000270032009e00780070002000d1
:103d00000008b80072df2000020040001080fb00b5
:103d1000200798000000eb00100798009e00780034
:103d2000700020000008b80062df200002004000a0
:103d30009080fb001e009000810f500013003d009a
:103d400064024700940178000300780021d9200024
:103d5000810240009e007800700020000008b8003a
:103d60001e0190000200400082df2000020040009f
:103d7000904a78008301e800030a78001e00900052
:103d80000000e80010079800e4ff37001e0fe8006d
:103d9000d2ff370014cebf000080fb0022d92000e4
:103da0008000eb00f70507000080fa000000060025
:103db0000e00fa00000f7800110798002207980003
:103dc00033079800440798000000eb005007980064
:103dd0009e009000f00f2000008060002800070087
:103de000800078005e0090000100400050079800bd
:103df000ae009000f00f200000806000200007005f
:103e0000800078005e00900001004000500798009c
:103e1000be009000f00f2000008060001800070036
:103e2000800078005e00900001004000500798007c
:103e30004e0090000000e000040032005e009000a0
:103e400001022000010070005007980000102000bf
:103e50001e007000c10207001e009000bf02070094
:103e60002e009000bd0207003e009000bb0207003c
:103e70005e009000b90207000080fa000000060012
:103e80000600fa00000f78000000eb001007980011
:103e900000c8b300404798004e4090000004e00086
:103ea0000d0032004e4090000080fb001e006000bc
:103eb0000000e00003003a001e0090000000e8004f
:103ec000100798004e4090000080fb000000d100d9
:103ed00040479800f0ff37001e0090000080fa0075
:103ee000000006001200fa00881f7800e60de200cc
:103ef00074003a00e0012000306f8800680047003d
:103f00000114800001087800680047001214800046
:103f100012009800680047002114800021009800da
:103f20000000eb00200798002e009000e20f5000e8
:103f30002e003c00e80047002e0090000000d0005a
:103f40000100400010007800cf80de0021f1070062
:103f5000c1f10700cf80de001ef1070012ff200034
:103f6000f3d7230088f10700020020000312240089
:103f700085f10700b8f10700300798002e00900087
:103f8000f2dd2000020440003e0090001c02070009
:103f9000004c78002e009000f2dd200082004000ee
:103fa0002e00900022de20000200400091407800a8
:103fb00090cf50000900320010c0b300e8edb70008
:103fc0002e00900022de2000820040002e00900093
:103fd000f2dd200002004000904878002e009000a2
:103fe0000000e80020079800cfff37003014800061
:103ff000fe004000506f8000810f500005003e0021
:1040000030148000fe005000506f8000810f50007f
:104010002a00310030148000506f88003014800076
:10402000cf80de00ebf0070070079800010f9800ca
:104030008602e20007003d00020020000378240011
:104040007e0090008e089000b4f107007007980081
:10405000010f980012b8200083bb23007e0090005f
:104060008e08900048f1070002002000031224008f
:1040700045f1070078f10700200798002e00900016
:10408000df0107000080fb00200798002e00900051
:10409000d1e720000100400010407800ecedb700af
:1040a000edcdbf00ec4de3000400320010c0b300c2
:1040b000eeedb700eccdbf00ededb7000000eb007a
:1040c000200798004f0478000080fa0000000600e6
:1040d0000200fa000040eb00004f7800f40de2000f
:1040e0002c003a00c0032000a06f8800cfc2bf00a0
:1040f0000080fb004600de000080fb0061006000e5
:104100000000e00001003a001e4fe800cfc2bf00ef
:104110000080fb004500de000080fb0061006000c5
:104120000000e00001003a001ecfe800c8c2bf0056
:104130000080fb004700de000080fb000000e00084
:1041400002003a001e407800644f4000c8c2bf0021
:104150000080fb004600de000080fb006100600084
:104160000000e00002003a001e407800684f400066
:104170001e407800efedb700f0cdbf00ef4de3003b
:1041800004003200efcdbf00f0edb70010c0b30067
:10419000f2edb7000080fa00000006000600fa0009
:1041a000dbcdbf000000fb00200798002e00900030
:1041b000e20f50003a003200ae009000e28f500053
:1041c00007003c002e0090000000e0000b003200d1
:1041d000ae009000e18f50002b00320069003700e4
:1041e0002e009000e30f500033003200ae0090002c
:1041f000e48f500054003200620037000000eb00f2
:104200000506070010002000b30007000000eb00c7
:10421000000f7800300020009e0f100012003c00bc
:104220001e40780059000700830007000000fb00d3
:10423000100798001e0090000000e0000800320007
:104240009e007800400020000088b900804078007f
:104250002e40900000c04000deedb70004003700a3
:104260001e0fe800ebff37000040eb00deedb7006b
:10427000dbcdbf000040e800dbedb7001000200000
:10428000950007003f00370040012000e06e8800e5
:10429000dbcdbf000040e800dbedb70039003700a0
:1042a000dc0de20037003a00dbcdbf000040e80043
:1042b000dbedb700330037000000eb00d605070048
:1042c00010002000840007000000eb00000f7800c1
:1042d000310020009e8f100013003c001e4078002b
:1042e0002a000700540007000000fb001007980098
:1042f0001e0090000000e00009003200decdbf008b
:104300008001fb009e007800400020000088b9007a
:104310001e01900002004000808f51000400320016
:104320001e0fe800eaff37000040eb00deedb700ab
:10433000dbcdbf000040e800dbedb700100020003f
:10434000650007000f003700decdbf000000fb0056
:10435000c1e620000100400010407800d8edb70011
:10436000d8cdbf00d94de30004003200d8cdbf0046
:10437000d9edb70010c0b300daedb7000040eb0094
:10438000dbedb7000080fa00000006000400fa0030
:10439000004f7800d462a900c762a900c782a900b3
:1043a000d202a900d222a900a1168000c0ff2f00ce
:1043b00000806000a016880041168000f07f2e006b
:1043c00000806000401688001e00fb001007980067
:1043d0001e009000e10f5000100032001e009000ff
:1043e000e10f500004003c001e0090000000e000bf
:1043f000080032000e0037001e009000e20f50004f
:10440000080032001e009000e30f50000700320049
:1044100007003700c962a80005003700c982a8005c
:1044200003003700d402a80001003700d422a800fe
:104430000080fa00000006000200fa000040eb00d5
:10444000004f7800e0c2bf000080fb006100600008
:10445000e10f500002003a0010c0b300004f780096
:10446000e0c2bf000080fb000000d1000080fb0024
:1044700061006000e10f500002003a0020c0b3006c
:10448000004f7800e0c2bf000080fb004600de0065
:104490000080fb0061006000e10f500002003a0064
:1044a00030c0b300004f7800d4c2bf000080fb00d2
:1044b0004200de000080fb0061006000e10f500060
:1044c00002003a0040c0b300004f78001e00fb001d
:1044d0000080fa00000006000400fa00000f7800d7
:1044e0001e007800100798002e4090006141600087
:1044f000012e200091407800e0cfb30000c06000a2
:1045000002407000e0e2b7002e4090006140600081
:104510000041d000012e200091407800d0cfb300a0
:1045200000c0600002407000e0e2b7002e40900042
:10453000614060004601dd00012e200091407800be
:10454000f0cbb30000c0600002407000e0e2b700b2
:104550002e409000614060004201dd00412d2000ae
:1045600091407800b0cfb30000c0600002407000fe
:10457000d4e2b7000080fa00000006000000fa0054
:1045800000e823001008880005e1a8005109200078
:1045900091407800f0c8b30000c0600001c5b300ce
:1045a0000140700095e0b7008c60a8000080fa0020
:1045b000000006000000fa000000eb000015880073
:1045c0000000eb00101588000000eb0020158800ab
:1045d0000000eb00301588000080eb0040158800db
:1045e0000000eb0050158800112a2000914078004f
:1045f000c0cfb30000c06000a1e2b700012a2000d4
:104600009140780000ceb30000c07000a0e2b70077
:10461000a042a800312a20009140780000ceb300cb
:1046200000c07000a3e2b700212a2000914078006a
:1046300030ccb30000c060008041b300a2e2b700fc
:10464000a342a800512a20009140780000ceb30078
:1046500000c060000024a000a5e2b700412a2000ad
:104660009140780000ccb30000c06000d040b3009f
:10467000a4e2b700a682a9004115800000ff2f0028
:104680000080600040158800f00020005015880070
:10469000a1e2a8000080fa00000006000000fa0075
:1046a000cdc2a800cda2a800c6e2a800c6c2a8003c
:1046b0000080fa00000006000000fa00300320002d
:1046c000a01088000de2a8000c02a900c120200063
:1046d0009140780090cfb30000c060000ce2b700ba
:1046e0000fe2a8000ea2a9000f42a8008109200035
:1046f00091407800f0c8b30000c0600001c3b3006f
:104700000140700098e0b7009109200091407800c6
:1047100080cfb30000c060003040b30099e0b70024
:104720008d20a8008d40a8000080fa00000006003f
:104730000000fa0010012000f010880017e2a80025
:104740001602a80016c2bf006040b30016e2b70010
:1047500019e2a80018a2a8001942a800010a200026
:1047600091407800f0c8b30000c0600001c3b300fe
:1047700001407000a0e0b7008f20a800d302a9007c
:10478000d502a8000080fa00000006000000fa0030
:1047900011e1a8000111200091407800f0ccb30095
:1047a00000c060000044a00010e1b700d322a800c0
:1047b00046e1a800611420009140780080cfb3004a
:1047c00000c060000004a00046e1b70061092000bd
:1047d0009140780080cfb30000c060006040b3001b
:1047e00096e0b7008480a9008c80a8000080fa00c1
:1047f000000006000000fa000080fa000000060039
:104800000400fa00000f78001e007800a2002000cb
:10481000110009000200d8008000fd00e40f5000e4
:10482000070034001e007800a200200011000900db
:104830000200d8000000e8001007980005003700cb
:104840001e007800a2002000110009000200d8001c
:10485000100798001e0090000080fa00000006007b
:104860000800fa00000f7800110798000000eb0024
:1048700020079800ae0090001e009000808f50002e
:1048800034003d002e0090001e0040001000fb0090
:10489000300798003e009000f70f50001b003200d8
:1048a0003e009000f70f500007003c003e009000d3
:1048b000f50f50000b0032003e009000f60f500044
:1048c0000d0032001f0037003e009000f80f50002e
:1048d000130032003e009000f90f50001500320026
:1048e000180037002e0090009e00400010c9b30051
:1048f00080487800130037002e0090009e00400092
:1049000050c8b300804878000e0037002e00900099
:104910009e00400000cab3008048780009003700bc
:104920002e0090009e00400050cab30080487800de
:10493000040037002e0090009e004000f0cdb30030
:10494000804878002e0090000000e80020079800c2
:10495000c8ff37000080fa00000006000200fa00dd
:10496000000f780002a0200092007800010078007b
:104970000000d00003802000030040001e087800e3
:104980008100e8000109780001508000f00f20004c
:1049900000806000005088000080fa0000000600df
:1049a0000200fa00004f780042a1200012007800b7
:1049b0008000780043a02000838040009e4878005b
:1049c0000000e80000097800a05080006f0060003f
:1049d000a05088000080fa00000006001200fa00d3
:1049e000000f7800110798002207980033079800fd
:1049f000440798001e009000500798000040eb000c
:104a0000005798000000eb00600798002e0090000f
:104a1000e10f5000580032002e009000e20f5000cd
:104a2000430032002e009000e30f50002e003200b1
:104a30002e009000e40f5000190032005e0090003c
:104a400002712200110009000280d800700798004e
:104a50007e0090000000e0000b003200ec014700f7
:104a600093007800010078001e0140006e4890001d
:104a700004c3b300044940008100e80081097800c4
:104a800010c0b300005798007e009000e90f50005e
:104a9000030036007e0090000000e80070079800d8
:104aa0005e00900002712200110009000280d8000f
:104ab0008000fd00823e2000110009000280d80025
:104ac00070079800ec01470093007800010078001f
:104ad0001e0140006e48900004c3b300044940002a
:104ae0008100e800810978005e009000823e20008d
:104af000110009000280d8008000fd00420620005d
:104b0000110009000280d80070079800ec014700ee
:104b100093007800010078001e0140006e4890006c
:104b200004c3b300044940008100e8008109780013
:104b30005e00900042062000110009000280d800ab
:104b40008000fd00a2002000110009000280d800b2
:104b500070079800ec01470093007800010078008e
:104b60001e0140006e48900004c3b3000449400099
:104b70008100e800810978005e009000a20020001a
:104b8000110009000280d8008000fd007007980025
:104b9000ec01470093007800010078001e014000fe
:104ba0006e48900004c3b300044940008100e8004f
:104bb000810978003e0090000000e00008003a0003
:104bc000ec01470093007800010078001e014000ce
:104bd0000040eb00004978008100e800810978007e
:104be0004e009000e10f500017003a002e00900098
:104bf000e10f5000140034000000eb006007980043
:104c00002e0090008000e9006e009000810f50009f
:104c10000d003d006e0090009e00400000c3b300f8
:104c2000914f100008003a006e0090009e00400076
:104c300000c2b300804878006e0090000000e800d9
:104c400060079800eeff37000080fa0000000600c1
:104c50000800fa00000f780021479800220798000a
:104c60000000eb0030079800be0090002e0090007e
:104c7000808f500008003d003e0090001e00400064
:104c8000ae409000014878003e0090000000e8002f
:104c900030079800f4ff37002e0090009e0040007f
:104ca0000040eb00804878000080fa000000060019
:104cb0000600fa00000f7800110798001e0090000f
:104cc00042002000110009000200d8008000fd0011
:104cd000000220000088b90002c02f00020040003e
:104ce000200798000301200022d92000ae00900088
:104cf000f0072000730407001e009000420020000f
:104d0000110009000200d800800020000088b900ce
:104d100022d9200000004100820020009e0078007f
:104d20008ced070002012000ae009000f00720008b
:104d300071040700030120002e019000f1072000fc
:104d400020d92000900407000080fa00000006002f
:104d50000600fa00000f7800110798001e0090006e
:104d600042002000110009000200d8008000fd0070
:104d7000000220000088b90002c02f00020040009d
:104d8000200798000301200022d92000ae009000e7
:104d9000f00720004b0407001e0090004200200096
:104da000110009000200d800800020000088b9002e
:104db00022d9200080004100820020001e007800df
:104dc00064ed07000080fa00000006000800fa0009
:104dd000000f780010002000200798000000eb0072
:104de000300798001e00780073ed07000000e9000e
:104df000100798001e0090000000e0001c00350025
:104e00001e0090009e004000f0c2b300914f1000c1
:104e1000130034001e0090009e00400090c3b300b9
:104e2000914f10000e003c001e0090001e0040003c
:104e30001000fb0002fd2f00820040002e009000b9
:104e40000088b9003e019000000041003007980042
:104e5000ae009000a00020000088b9002007980054
:104e60001e0090000000e90010079800e1ff3700e5
:104e70003e0090000080fa00000006000600fa00e4
:104e80000e00780088010700100798001cccbf00b6
:104e90000080fb00200798002e009000e10f5000da
:104ea00017003200ae019000e18f510004003c0079
:104eb0002e0090000000e0000800320042003700a1
:104ec000ae019000e28f5100310032002e009000c0
:104ed000e30f5000380032003b00370023c0b3001e
:104ee0009ecf110038003a0040012000806c8800fd
:104ef0001cccbf000040e8001cecb70032003700bb
:104f0000900de20002003a0030c0b3001cecb70084
:104f100030c0b3009e4f100006003a001cccbf000a
:104f20000040e8001cecb7000000eb00806c88003b
:104f300025003700f1608000200d2000808f500098
:104f400005003a0030c0b3001cecb7000000eb00d5
:104f5000806c88001c0037001e0090000000e000fc
:104f600019003200e2c120001200780080007800b1
:104f7000c3b12000838040009e4878000000e80014
:104f80000009780040012000806c88000e00370086
:104f90008d000700e10f400002003a008500070085
:104fa000010037000a0007001cccbf000040e800e9
:104fb0001cecb700040037000040eb001cecb7000d
:104fc0000000eb00f06088000080fa00000006009e
:104fd0000800fa001ccbbf000080fb0030079800df
:104fe00050042000be009000808f5000620032000c
:104ff000500420003e019000800f510005003c004d
:1050000040042000be009000808f5000230032003a
:1050100061003700900420003e019000800f510095
:105020005d003a0090c4b3005dfe0700c0c2b3004b
:105030005bfe070010c0b30059fe0700f0df22003e
:10504000200798002e009000c880de0000c0eb0012
:105050000140600052fe070080c0eb004e4090000f
:1050600000c060004efe070020c3b3004cfe0700e6
:105070000201200001c2b30020d92000f4fe070085
:105080000040eb00a2edb70022d920008000eb0029
:10509000200020003b0107003f00370040000700d0
:1050a000a20007001c4be2000b003a00a12e2b00cf
:1050b00020d9200092ec07008200200011b22000cd
:1050c00080d9200093ec070022d920008000eb005b
:1050d0000000eb002b0107000201200001c2b30019
:1050e00020d92000dafe07000040eb00a2edb70057
:1050f0000000eb00000f78001ccbbf000080fb001d
:10510000e2002000110009000280d8008000fd00ac
:105110000080fb009e0f100006003d0020d92000fb
:105120009e004000d0c2b300804878001e0fe80007
:10513000f1ff370022d920009e004100e0c3b300f8
:105140008048780022d920008000eb001000200069
:105150000c0107001ccbbf008080fb000004200076
:105160000088b9000200250082004000d0b1200074
:10517000160307000800370009000700112f2b0055
:1051800020d920005eec070022d920008000eb002f
:1051900020002000fb0007000080fa00000006004d
:1051a0000000fa0060c0b300fdfd07000080fa00b7
:1051b000000006000000fa0050c1b300f8fd07002f
:1051c0000080fa00000006000800fa000000eb0072
:1051d000100798000000eb00000f7800f0608000de
:1051e0000080e9009e0f100008003d00c1b12000c2
:1051f0001e8040009080fb001e00900001006800af
:10520000100798001e0fe800f4ff3700f0608000e0
:10521000b2b1200082004000f0608000a2b1200006
:105220000200400091407800104078000e00070016
:105230000080fb00200798009e0090002e00900048
:10524000808f500003003a000000eb003007980008
:10525000020037008080eb00310798003e0090008c
:105260000080fa00000006000400fa00004f7800f9
:1052700011479800f0c2b3009e4f10000b0034009d
:1052800090c3b3009e4f100008003c009e00fb003e
:10529000000120000088b900804078000040eb0049
:1052a00000c0400020479800070037009e00fb0028
:1052b000000120000088b9008040780000c9b300d8
:1052c00000c04000204798009e409000f0c2b3000c
:1052d00080cf50000b0034009e40900090c3b3007c
:1052e00080cf500007003c00ae4090001e40900070
:1052f00080c0400000cdb30000c0400020479800af
:1053000006003700ae4090001e40900080c0400074
:1053100090ccb30000c04000204798002e40900081
:105320000080fb000080fa00000006000400fa0084
:1053300010002000000f7800f06080006300500033
:105340009e0f100013003d00d1b120001e804000d0
:10535000c1b120001e8140009040780012407800ca
:10536000c1ff0700204798001e007800220020009f
:10537000110009000200d800c1b120000100400066
:10538000ae409000014878001e0fe8001e0fe800b4
:10539000e9ff37000080fa00000006000600fa006e
:1053a000004f7800110798001e00fb00020120004a
:1053b000110009000200d8000000fb00200798003f
:1053c0002e0090006f006000200798002e009000d3
:1053d000e90f500009003c008e81e80013017800bd
:1053e0004e4090000043b000820078008048780072
:1053f0000201e80082097800080037008e81e80089
:10540000130178004e4090007043b0008200780095
:10541000804878000201e800820978001e00fb0045
:105420006f006000e90f50000a003c008e81e80028
:10543000130178009e4078006fc060000043b00008
:1054400082007800804878000201e8008209780034
:10545000090037008e81e800130178009e40780033
:105460006fc060007043b000820078008048780010
:105470000201e800820978008e81e80013007800bc
:105480000001780031c0b300014978000000e80055
:10549000800978009e0090000040eb008048780072
:1054a0000080fa00000006000400fa00000f7800f7
:1054b000c1508000d0508000808f500006003a001c
:1054c0009e0078000040eb00804878000000eb0070
:1054d000100798000f0037009e017800a2a120005d
:1054e0001200780080007800c4a120008480400071
:1054f000914978000000e80000097800d150800050
:10550000f00f200000806000d050880010002000c4
:10551000100798001e0090000080fa0000000600ae
:105520000000fa000a00fc00e06b8000f16b8000d4
:105530000080fa00000006000400fa00008fbe00a0
:105540001400fc001e00be00e06b8800f16b8800b8
:105550000080fa00000006000200fa00000f780048
:1055600021302b0020d9200065eb070022d9200034
:105570008000eb001e007800020007000080fa00a7
:10558000000006000800fa00000f780011079800dc
:10559000220798000040eb004c0007009e40780076
:1055a0002e4090001d0007002e009000f0004000eb
:1055b0000040eb00804878000000eb0030079800c6
:1055c0002e0090007ceb0700800078003e009000e9
:1055d000810f500009003100ae0090003e009000a5
:1055e0000080400010407800440007003e0090001a
:1055f0000000e80030079800f1ff370041e120008b
:105600009140780016cebf000400070017cebf00ff
:105610002e0007000080fa00000006000600fa00d5
:10562000004f7800114798001e4090000000fb00da
:10563000200798002e009000e10f5000110032006a
:105640002e009000e10f500004003c002e0090005e
:105650000000e00008003200120037002e00900029
:10566000e20f50000a0032002e009000e30f5000bd
:105670000a0032000b00370000c8b3002047980032
:105680000800370000ccb300204798000500370021
:1056900000c9b300204798000200370000cdb300d6
:1056a000204798002e4090001e4040002047980060
:1056b000c362a900d462a9002e4090000f00070029
:1056c000c362a8000080fa00000006000200fa0091
:1056d000004f7800a00007001e04e00003003a001d
:1056e000c0c0b3000500070002003700f0c0b300df
:1056f000020007000080fa00000006000200fa0025
:10570000004f78006d0007001e00fb006100600084
:10571000614060004401dd00812c20009140780050
:10572000f0ceb30000c0600002407000c8e2b700d5
:105730001e00fb000080d100004f78001e00fb001f
:105740006100600061416000912c20009140780070
:10575000e0cfb30000c0600002407000c9e2b700b3
:105760001e00fb000080d100004f78001e00fb00ef
:1057700061006000614060000041d000912c200079
:1057800091407800d0cfb30000c0600002407000ac
:10579000c9e2b7001e00fb000080d100004f780076
:1057a0001e00fb0061006000614060004201dd00fe
:1057b000912c200091407800b0cfb30000c0600071
:1057c00002407000c9e2b7001e00fb000080d1005b
:1057d000004f7800c962a8001e00fb006100600055
:1057e000614060004301dd00912c20009140780071
:1057f00070cfb30000c0600002407000c9e2b70083
:105800001e00fb000080d100004f78001e00fb004e
:1058100061006000614060004401dd00912c2000c7
:1058200091407800f0ceb30000c0600002407000ec
:10583000c9e2b7001e00fb000080d100004f7800d5
:105840001e00fb006100600061416000412d2000ee
:1058500091407800e0cfb30000c0600002407000cb
:10586000d4e2b7001e00fb000080d100004f78009a
:105870001e00fb0061006000614060000041d0003c
:10588000412d200091407800d0cfb30000c06000cf
:1058900002407000d4e2b7001e00fb000080d1007f
:1058a000004f7800c8a2a800400120004d0007006a
:1058b000c8a2a9000080fa00000006000200fa0059
:1058c000c3c2bf000080fb004300de000080fb007d
:1058d000610f6000100020004f000700d462a80094
:1058e000c362a900c8a2a800400120003d00070033
:1058f000d4c2bf000080fb000000d1000080fb008c
:10590000610060000000e00004003200c8a2a900ad
:105910004001200033000700f2ff3700c8a2a900b1
:105920000000eb003c000700d462a9009e40780014
:1059300061c060004301dd00312c200091407800ff
:1059400070cfb30000c0600002407000c3e2b70037
:105950000080fa00000006000000fa00c162a90001
:10596000d262a900c6a2a900c8a2a900d462a90057
:10597000c362a9000080fa00000006000000fa00df
:10598000f5ff070010c0b3005cff07000080fa00bd
:10599000000006000000fa00efff0700e0c3b300bc
:1059a00056ff070080c0b30054ff070080c3b30058
:1059b00052ff0700c0c0b30050ff070010c0b30083
:1059c0004eff070060c0b3004cff07000000eb0073
:1059d000007888000000eb00107888000080fa0052
:1059e000000006000400fa00000f78000000eb0041
:1059f000100798001e0090009e0f500004003d000c
:105a00001e0090000000e80010079800f9ff370022
:105a10000080fa00000006000400fa00000f780081
:105a20001e007800100798002e4090006140600032
:105a30004401dd00612c200091407800f0ceb300dd
:105a400000c0600002407000c6e2b7002e40900027
:105a500061416000712c200091407800e0cfb300dc
:105a600000c0600002407000c7e2b7002e40900006
:105a7000614060000041d000712c2000914078000e
:105a8000d0cfb30000c0600002407000c7e2b70092
:105a90002e409000614060004201dd00712c20002a
:105aa00091407800b0cfb30000c0600002407000a9
:105ab000c7e2b7002e409000614060004301dd0066
:105ac000712c20009140780070cfb30000c06000be
:105ad00002407000c7e2b7002e40900061406000b5
:105ae0004401dd00712c200091407800f0ceb3001d
:105af00000c0600002407000c7e2b7002e40900076
:105b000061416000212d200091407800e0cfb3007a
:105b100000c0600002407000d2e2b7002e4090004a
:105b2000614060000041d000212d200091407800ac
:105b3000d0cfb30000c0600002407000d2e2b700d6
:105b40000080fa0000000600000006004200f80095
:105b5000809fbe00880de2004220ae00882ded003f
:105b60008a0de2004220ae008a2ded008c0de2008d
:105b70004220ae008c2ded008e0de2004220ae00e2
:105b80008e2ded00900de2004220ae00902ded0034
:105b9000dc0de2004220ae00dc2ded00e60de2005f
:105ba0004220ae00e62ded005a0ee2004220ae008b
:105bb0005a2eed00680ee2004220ae00682eed0085
:105bc000f40de2004220ae00f42ded007c0de20069
:105bd0004220ae00030037007e0de2004220af00fd
:105be000060037007c2ded004200af0003003700b7
:105bf0007e0de200010032007e2ded00005080009d
:105c0000115080000100e100030032001902ab00d6
:105c1000010032008720a800a0508000b150800011
:105c20000100e100030032001902ab000100320064
:105c30008540a8000200fc008460a9004f00be005f
:105c40004200f900004006004200f800809fbe00bc
:105c5000829fbe0090108000c1508000c2a1200031
:105c600002814000004978008100e800f10fb20095
:105c7000c15088000200fc008520a9004f01be0031
:105c80004f00be004200f900004006004200f8004c
:105c9000809fbe00829fbe00e01080000250800006
:105ca000135080000218e10008003200028020003a
:105cb0008300d00002814000120078008301e800d8
:105cc000f30fb20013508800d01088000200fc00cf
