:020000040000fa
:080000000001040000000000f3
:020000040000fa
:100200006fd7200080ff2000000188000000000060
:10021000050007000c0007000e05020000000000aa
:100220000040da000000fe004440a900805e20008b
:100230000000e0000300320000002000a001880060
:100240004440a8000000060060f3270001002000e1
:100250001600370062004000e080480091018800ed
:100260009001ba0062004000e080480091018800df
:100270009002ba0062004000e08048000002eb00fb
:100280006028e10005003a008301e900070033001f
:10029000038009000059eb00040037006128e100e9
:1002a000010032000082eb00050007009101880088
:1002b0001001ba000200e000e6ff3a00000005006d
:1002c000910188008002780062004000e0804800d0
:1002d0003559ba008301e900080032002559ba00f7
:1002e0008301e900050032000400e000f4ff320061
:1002f00015d9ba008301e900f1ff3a0000000600b9
:1003000000017800314978003204e000fdff3a0036
:1003100000000600800178000200e00007003200c3
:100320001104e00005003200b15978000201e90033
:10033000020032001104e000fbff3a000200e0007e
:10034000030032008059eb000201e900fdff3a0092
:1003500000000600800178000200e0000300320087
:10036000b15978000201e900fdff3a0000000600e3
:1003700010417800914f510006003a008001eb00d7
:100380000204e0000a00320050417800d14f5100d1
:10039000faff320010407800914f50000200310007
:1003a0000080eb0001003700100020008001780081
:1003b0000300780000000600800078001004e000d0
:1003c000020032005104e000feff3a0000805000bd
:1003d00000000600839f68000100e00002003d006d
:1003e00060001000e08018000300e00002003d0003
:1003f00060011100e0811900250107004f00e000b5
:1004000002003b0060001000e080180000000600c1
:10041000889fbe008a9fbe00010578000100e000b1
:100420000400350008003c000000e000200032001d
:100430000500370060001000e080180002003b005b
:1004400001f02c001a0037000004be006011b80053
:100450006b0920000982cf00020039000882cf001a
:100460000441b000694252000e00320008003b0017
:1004700082817100610164008904d1000884d30085
:100480008b05e8000442e800f9ff3a000500370058
:100490000804440089844c008b05e9000442e9000b
:1004a000fbff3a000a0107000af0a70001f0a000d4
:1004b0004f05be004f04be0000000600889fbe002e
:1004c0008a9fbe008c1f7800270107002e01330091
:1004d00003866c006450e100240032006420e100d7
:1004e000270032006150e100220032006120e1006b
:1004f000210032008b854200eb07b1000134b800c7
:10050000003ab8000804420089844a00013ab80061
:100510000030b8008880400009014a000400330020
:100520000000400081804800020149008b05e9007d
:10053000c909dd00830170000100320013002000b2
:10054000c814de004814dd004709de001200b200c6
:10055000c808de0008847000dd00070001f0a1007b
:100560000cf0a70001f0a000100137006120e100ad
:10057000120132000801be000200be00f7ff370082
:100580006150e100fcff3a000c0137000001be00a1
:100590000d0107000470a70003f0a1006509b10078
:1005a000160032000d0035006828e1000600350015
:1005b000f0ff2f00f1ff27000300e00013003b00d5
:1005c0000100280000000500000040008180480074
:1005d0008502e900fcff3a0008003700f88f42006e
:1005e00002003c008000eb00000005008100d1000b
:1005f0000080d3008502e800fcff3a000300e00021
:1006000002003b0060001000e080180000000600bf
:1006100003f0a200889fbe008a9fbe008c1f780056
:10062000d1000700d80033006450e1004f003200d1
:100630006420e1005200320003826c0007003b009e
:100640000905d0000306d000820f54000c065d009f
:1006500002003900020032008901780003067800a8
:100660008582550004003d000003fd008103fd006c
:100670008502ea008b854200840f720002003b0075
:1006800060001000e08018006011b8000005eb0069
:100690007a28e1000a00390006007800c75ddd0015
:1006a000f707b200878075002d0037008281710046
:1006b0000a017800610560008180d1000080d300cc
:1006c0008502e900f9ff3b000604400087844800ea
:1006d00002003b0060041400e0841c000988a300b1
:1006e000070032008a81710082817100610164001b
:1006f0008904d1000884d3008b05e8001700370077
:100700000978a30013003a000b00e0001300340046
:100710008b05e9000804440089844c000a447400f5
:100720000978a3000d003a000b00e0000700340038
:100730008b05e9000804440089844c0001003a005c
:100740000b0020000978a300f7ff32000001eb0046
:1007500002003700828171000a0178005c00070006
:100760000cf0a70001f0a000900037006420e10029
:1007700002003a00838f6c00900033000801be0035
:100780000200be0089003700889fbe008a9fbe001d
:100790008c1f7800740007007b00330003866c0018
:1007a0006450e1002e0032006420e100330032008a
:1007b0006150e1002f0032006120e1003100320081
:1007c00085855500eb07b0000900200008042000d3
:1007d000050037000804440089844c000a003100f9
:1007e0000603430087834b000001530081815b00b7
:1007f000f8ff33000203be000800a0000804440014
:1008000089844c00f6ff3900c639dd00830173008e
:1008100001003200130020008904d1000884d300b5
:100820000998a300050032000800a7000300a000fb
:100830008904d1000884d3008b05e8008904d10025
:100840000884d3000001eb000281d20020000700e1
:1008500001f0a1000cf0a70001f0a0005300370048
:100860006420e100550032000801be000200be0015
:10087000f7ff37006120e100500032006000b8004f
:10088000f3ff37000000200001f82700f0ff3700d9
:100890006022b800060220000000d0008180d20053
:1008a0000482d2008582d2000000a0000202520021
:1008b00083825a0003003b000202420083824a0006
:1008c0000000a1000603e900f3ff3a000000060063
:1008d00081002000618055000b003d000b002000ce
:1008e00061fe2f000100e1001d00340082817100d3
:1008f000610164008904d1000884d3000000e8008d
:10090000faff3a00710020006100640003007000eb
:10091000020060000900320061044400e0844c00e1
:100920000988a500050032008b05e8006808e10091
:1009300002003a008904d1000884d300f20f20009d
:100940000258e10005003d00c75ddd00f907b20077
:100950008980750008007800000006000bf8270069
:100960008b007800000005000004be0016000700a0
:100970000003be000405be000200be001200070016
:10098000844f7500000006000200be006450e100c4
:10099000050036006420e100020036000968a3006b
:1009a00001003a000800be000160a0004f06780078
:1009b0004f05be004f04be0000000600f0ff2f00f0
:1009c000f1ff2700f9ff3700c70ade00f107b20088
:1009d000f50fb20008003200e1cf42000200320001
:1009e0000170a00024000500810f7000010032009a
:1009f0000408050044000500810f700002003a0061
:100a0000140005008502e9000000400081c0480094
:100a1000fcff3b000170a000240005000200fa006a
:100a200000c0eb0049ecb7000040eb004aecb70017
:100a30000040eb004becb7000000eb006062880068
:100a40000000eb00706688000000eb00000f7800eb
:100a5000200020009e0f10000a003c00f2c420007d
:100a60009e0041000040eb008048780020c5200037
:100a70009e00400000c0eb00804878001e0fe80098
:100a8000f3ff37000040eb0058ecb7000000eb002c
:100a9000b06288000040eb005cecb70000c0eb00e7
:100aa0005decb7000040eb005eecb7000080eb00af
:100ab000d06288000040eb005fecb70000c0eb00a4
:100ac00060ecb7000040eb0061ecb7000040eb00c9
:100ad00062ecb7000000eb00004488000000eb006f
:100ae000104488000000eb00d04488000000eb00b8
:100af000c04488000040eb009ceab7000000eb0017
:100b0000f05488000040eb0087ecb7003b0d070075
:100b10002c0d0700730d0700790d0700960d0700d7
:100b2000ac0d07002d1207000000eb0020638800c9
:100b30000000eb00000f7800320020009e0f110033
:100b40000d003c009e007800100120000008b80055
:100b5000c2d32a008000410020c02000e8fd070029
:100b600022c020008000eb001e0078001711070053
:100b70001e0fe800f0ff3700004b2000c05f880028
:100b8000f80be200feff3a0000000000150c070021
:100b9000660b0700e00b0700020007000060fe0084
:100ba000faff37000200fa0020c6200011c0b3008f
:100bb00090cf100014003a000de2a8000f42a800e8
:100bc0000000eb00c04488000000eb00d044880027
:100bd0008c80a9000040eb0062ecb7000040eb0005
:100be00061ecb700f71107000040eb0087ecb7009d
:100bf00087ccbf00471107000040eb004aecb7006c
:100c00000000eb00706688005fccbf000000fb00b6
:100c1000000f78001e007800e40f5000270032001b
:100c20009e007800e48f500011003c001e00780008
:100c3000e10f50001d0032009e007800e18f50004f
:100c400004003c001e0078000000e00015003200a7
:100c5000260037009e007800e28f50001500320019
:100c60001e007800e30f5000160032001f0037000e
:100c70009e007800e68f5000160032001e007800bb
:100c8000e50f5000110034009e007800e78f5000ff
:100c9000120032001e007800e80f500011003200f0
:100ca00012003700580907001700370042070700f5
:100cb00015003700c708070013003700b206070009
:100cc00011003700c50407000f00370010000700af
:100cd0000d003700ce0107000b0037002603070088
:100ce00009003700ca06070007003700b1e32a00f1
:100cf00020c0200082fd070022c020008000eb0001
:100d00000000eb00b11007000080fa0000000600b0
:100d10000e00fa00c0892000000f7800c099200062
:100d20001007980061ccbf000000fb00600798002e
:100d30006e0090000000e00004003200ee00900021
:100d4000e18f50002a003200870137000de2a90030
:100d50008c80a8007e0407000301200022c220002e
:100d600001fe2f00f0072000ec1207001061800048
:100d7000e10f400006003a000000eb00106188001f
:100d80000000eb00206188000000eb00306188006b
:100d900081e42a0020c0200059fd070022c0200065
:100da0008000eb000000eb00881007000080eb00e3
:100db000a06688000000eb00c06688000040eb00e1
:100dc000daecb70061ccbf000040e80061ecb7008e
:100dd0000000eb00d05f88000000eb00e05f8800bf
:100de0000000eb00f05f8800db0207005e013700c7
:100df0005f010700fe0be20023003a00c012200052
:100e0000f05f880061e52a0020c020003cfd07005b
:100e100022c020008000eb00100020006b100700b3
:100e20000201200001c2b30020c020001a0e0700fa
:100e30001400200013002000320020001161800007
:100e400020c02000770d07001400200013002000b0
:100e5000320020002161800070c02000710d070069
:100e600014002000130020003200200031618000b7
:100e7000c0c020006b0d070022c020008000eb00e6
:100e80002000200051100700a0cd200012c0b300a8
:100e9000904f11000d003a00d80ce2000b003a0010
:100ea0000040eb00daecb7000201200001fe2f0049
:100eb000f0072000a61207000301200002fe2f0009
:100ec000f107200020c22000c5120700c1448000a5
:100ed000d0448000808f50001a003200ca0ce2001b
:100ee00018003a000000eb00806688000000eb006c
:100ef00070668800c144800070042000808f50001c
:100f00000f003400c144800090042000808f500006
:100f10000b003c00d00ce20009003a001000200059
:100f2000906688000000eb00c04488000000eb00e1
:100f3000d04488000000eb00806688000100370084
:100f400003040700d20ce200070132000000eb00ae
:100f50006066880060668000e50f500001013c007b
:100f60000000eb00200798002e009000e20f5000d8
:100f700014003c0061668000300020000088b90049
:100f80002e01900082004000000420000088b9007b
:100f90000340240003014000ae0090000003200045
:100fa0000088b900c39920000080410082007800c9
:100fb0004b1207002e0090000000e8002007980068
:100fc000e9ff37000000eb00806688002000200069
:100fd000200798002e0090008000d0001e00900096
:100fe000008040001000e00026003200ae009000bb
:100ff00050092000808f500022003c00ae0090007d
:1010000050092000808f500002003a00100020009c
:10101000806688002e0090000000d0001e01400075
:101020002e0090008000d0001e0090000080400044
:101030000119200010804000920f10000b003e00ac
:101040002e0090000000d0001e0140002e009000f5
:101050008000d0001e0090000080400003e72f00b9
:1010600010804100920f100002003100100020009b
:10107000806688002e0090000000e800200798009d
:10108000d4ff3700d00ce200b2003a00fa0be200c5
:101090001b003200cc0ce2001900350060668000b5
:1010a000e50f500016003c0000712200c066880069
:1010b00010c0b300daecb700fc0be20018003a00f5
:1010c000b06680000000d00001d220000100400086
:1010d00010007800e05f8800b06680000000d0005b
:1010e00002d22000020040001000e0000c0032009c
:1010f000b06680000000e800b06688000800370095
:101100000000eb00b0668800b06680000000d000f0
:1011100003d220000300400010007800e05f880048
:10112000a0142000d05f880060668000400798000f
:10113000ce009000e28f5000230032004e0190005c
:10114000e20f510007003c00ce0190000300e000d8
:10115000130032004e009000e10f50000b003200ef
:1011600027003700ce009000e48f500020003200ae
:101170004e019000e30f51000e003400ce019000ac
:10118000e58f5100150032001d0037000000eb0014
:10119000a0668800300020006066880018003700d4
:1011a0000000eb00a0668800400020006066880018
:1011b0001300370010002000a066880030002000d7
:1011c000606688000e00370010002000a0668800ce
:1011d00040002000606688000900370020002000e1
:1011e000a066880030002000606688000400370098
:1011f00020002000a0668800400020006066880073
:101200006066800050079800de009000e38f500079
:10121000040032005e019000e40f5100280032000b
:101220004c003700a06680000000d00023c22000e0
:1012300083004000f00f2000910f100049003200a1
:10124000a0668000e10f400046003200a0668000ea
:101250000000d00021c2200001014000a0668000f3
:101260000000d00023c2200083004000b066800050
:101270000000d00083d420000300400091007800db
:1012800010894000a06680000000d00022c220002b
:1012900082004000f00f2000910f10000600340083
:1012a000a06680000000d00023c220008300400020
:1012b000f00f200080087800a70107002900370000
:1012c000a06680000000d00021c220000100400084
:1012d0001000e00023003200a0668000e10f400013
:1012e00020003200a06680000000d00023c2200051
:1012f00003014000a06680000000d00023c220004f
:1013000083004000b06680000000d00083d420003d
:10131000030040009100780010895000a066800012
:101320000000d00021c22000010040001000e000b9
:1013300006003d00a06680000000d00022c2200010
:10134000820040000000eb00800878008201070066
:1013500004003700606680000000e80060668800d6
:10136000fcfe3700fa0207000080fa0000000600c9
:101370000000fa00fe0be20023003a00c012200039
:10138000f05f880061e52a0020c02000dcfb070038
:1013900022c020008000eb00100020000b0f07008f
:1013a0000201200001c2b30020c02000ba0c0700d7
:1013b0001400200013002000320020001161800082
:1013c00020c02000170c070014002000130020008c
:1013d000320020002161800070c02000110c070045
:1013e0001400200013002000320020003161800032
:1013f000c0c020000b0c070022c020008000eb00c2
:1014000020002000f10e07000080fa000000060016
:101410000c00fa00c0892000000f7800c09920005d
:101420001007980061ccbf000000fb005007980037
:101430005e0090000000e00004003200de0090003a
:10144000e18f50002a003200410137000de2a9006f
:101450008c80a800be0207000301200022c22000e9
:1014600001fe2f00f00720002c1107001061800002
:10147000e10f400006003a000000eb001061880018
:101480000000eb00206188000000eb003061880064
:1014900071e62a0020c0200099fb070022c020002e
:1014a0008000eb000000eb00c80e07000080eb009e
:1014b000a06688000000eb00c06688000040eb00da
:1014c000daecb70061ccbf000040e80061ecb70087
:1014d0000000eb00d05f88000000eb00e05f8800b8
:1014e0000000eb00f05f88001b01070018013700c7
:1014f0009fff0700a0cd200012c0b300904f110045
:101500000d003a00d80ce2000b003a000040eb005e
:10151000daecb7000201200001fe2f00f0072000e6
:101520000b1107000301200002fe2f00f10720002d
:1015300020c220002a110700c1448000d04480004e
:10154000808f500019003200ca0ce20017003a00e8
:101550000000eb00806688000000eb0070668800e9
:10156000c0448000e40f50000f003400c1448000ec
:10157000b0032000808f50000b003c00d00ce20034
:1015800009003a0010002000906688000000eb007f
:10159000c04488000000eb00d04488000000eb004d
:1015a000806688000100370069020700d20ce20063
:1015b000e70032000000eb00606688006066800093
:1015c000e40f5000e1003c000000eb002007980011
:1015d0002e009000e20f500014003c006166800075
:1015e000300020000088b9002e01900082004000e9
:1015f000000420000088b90003a02400030140007b
:10160000ae009000000320000088b900c3992000bc
:101610000080410082007800b11007002e00900089
:101620000000e80020079800e9ff37000000eb0009
:101630008066880020002000200798002e0090007f
:101640008000d0001e009000008040001000e000ec
:1016500026003200ae009000f0072000808f50007e
:1016600022003c00ae009000f0072000808f500068
:1016700002003a0010002000806688002e009000d2
:101680000000d0001e0140002e0090008000d0001d
:101690001e009000008040000119200010804000d2
:1016a000920f10000b003e002e0090000000d000b2
:1016b0001e0140002e0090008000d0001e0090000f
:1016c0000080400003e72f0010804100920f1000bf
:1016d0000200310010002000806688002e0090007b
:1016e0000000e80020079800d4ff3700d00ce2008b
:1016f00092003a00fa0be2001c00320060668000a3
:10170000e30f50000300320060668000e40f5000d9
:1017100016003a0000712200c066880010c0b300b5
:10172000daecb700fc0be20018003a00b06680006b
:101730000000d00061d020000100400010007800bf
:10174000e05f8800b06680000000d00062d020001a
:10175000020040001000e0000c003200b066800083
:101760000000e800b0668800080037000000eb00c9
:10177000b0668800b06680000000d00063d0200012
:101780000300400010007800e05f88004006200061
:10179000d05f88006066800040079800ce0090000f
:1017a000e28f5000170032004e019000e20f51000e
:1017b00007003c00ce0190000300e0000b00320067
:1017c0004e009000e10f50000b0032005b0037002c
:1017d000ce009000e38f50000d0032004e019000cb
:1017e000e40f510031003200540037000000eb00dc
:1017f000a06688005100370010002000a066880015
:101800004e00370020002000a06688004b00370003
:10181000a0668000e10f400048003200a066800012
:101820000000d00023c2200083004000f00f200001
:10183000910f100041003200a06680000000d0002f
:1018400021c2200001014000a06680000000d000fd
:1018500023c2200083004000b06680000000d0005a
:1018600023d120000300400091007800108940003f
:10187000a06680000000d00022c22000820040004c
:10188000f00f2000910f100006003400a0668000c9
:101890000000d00023c2200083004000f00f200091
:1018a000800878002c00070024003700a066800024
:1018b000e10f400021003200a06680000000d0004f
:1018c00021c22000010040001000e0001b00320097
:1018d000a06680000000d00023c220000301400069
:1018e000a06680000000d00023c2200083004000da
:1018f000b06680000000d00023d12000030040002b
:101900009100780010895000a06680000000d0008f
:1019100021c22000010040001000e00006003d0050
:10192000a06680000000d00022c22000820040009b
:101930000000eb0080087800070007006066800068
:101940000000e800606688001cff37008001070087
:101950000080fa00000006000000fa0033618000f9
:101960002261800011618000f00f2000aa070700ab
:101970000080fa00000006000600fa0061ccbf00fb
:101980000000fb00200798002e009000e40f50009c
:101990007b003200ae009000e48f500011003c004c
:1019a0002e019000e10f51003b003200ae0190008b
:1019b000e18f510004003c002e0090000000e00088
:1019c0001500320060013700ae009000e28f500039
:1019d000440032002e019000e30f5100530032000a
:1019e00059013700ae019000e68f5100cb00320064
:1019f0002e009000e50f5000c5003400ae009000ae
:101a0000e78f5000d70032002e019000e80f510000
:101a1000e90032004c01370051e72a0020c02000c5
:101a200037fa070022c020008000eb000000eb0026
:101a3000660d070041e82a0020c0200030fa0700a8
:101a400022c020008000eb00100020005f0d070086
:101a5000e1e82a0020c0200029fa070022c0200067
:101a60008000eb0020002000580d0700c1e92a008b
:101a700020c0200022fa070022c020008000eb00d6
:101a800030002000510d070061ccbf000040e8008d
:101a900061ecb7002c013700a0c4200013c0b300d4
:101aa00090cf110028013a000040eb004aecb7004b
:101ab00080c4200011c0b30090cf100002003a0093
:101ac00020c0b30061ecb70080c4200022c0b30086
:101ad000904f11001c013a0060c0b30061ecb700e8
:101ae000190137000de2a9008c80a800350e07000f
:101af000c1ea2a0020c0200001fa070022c020000d
:101b00008000eb000000eb00300d07000000eb0050
:101b1000606688000000eb00c05f880061ccbf00f9
:101b20000040e80061ecb700070137006166800003
:101b3000100120000008b80003d82a00808041006e
:101b400020c02000eef9070022c020008000eb003a
:101b5000100020001d0d070061ccbf000040e80010
:101b600061ecb700fa00070060668000e50f5000e6
:101b7000f500340050c0b30061ecb700f20037004c
:101b8000c1448000d0448000808f5000ee003200bd
:101b9000ca0ce200ec003a000000eb00706688001e
:101ba000c0448000e40f500045003400c144800070
:101bb000b0032000808f500041003c00d00ce200b8
:101bc0003f003a00c02b2000c05f880010002000ba
:101bd000f30c0700d1eb2a0020c02000c8f9070051
:101be00022c020008000eb0010002000f70c07004e
:101bf000f80be200feff3a0010002000e80c07009e
:101c00000000eb00100798001e009000e20f50004b
:101c100014003c0061668000300020000088b9009c
:101c20001e01900082004000000420000088b900de
:101c300003a02400030140009e0090000003200048
:101c40000088b900c389200000804100820078002c
:101c5000f40e07001e0090000000e8001007980036
:101c6000e9ff3700606680000000e80060668800d9
:101c700030c0b30061ecb70060668000e50f500033
:101c80000c003a0010002000c50c070011ec2a00df
:101c900020c020009af9070022c020008000eb003d
:101ca00010002000c90c0700f0c0b30061ecb700c1
:101cb000a50037002000200070668800a2003700d1
:101cc000c02b2000c05f880010002000b40c07006b
:101cd00091ec2a0020c0200089f9070022c02000d2
:101ce0008000eb0010002000b80c0700f80be200a9
:101cf000feff3a0010002000a90c07002000200081
:101d00007066880030c0b30061ecb7008e00370009
:101d10000000eb00706688008b0037000de2a90020
:101d20008c80a800a70d070031ed2a0020c02000fc
:101d300073f9070022c020008000eb000000eb00d8
:101d4000a20c07000000eb00606688000000eb00ba
:101d5000c05f880061ccbf000040e80061ecb700c4
:101d60007900370061668000100120000008b8008b
:101d700052dd2a008000410020c0200060f90700e9
:101d800022c020008000eb00100020008f0c070014
:101d900061ccbf000040e80061ecb7006c000700b8
:101da00060668000e60f50006700340060c0b3003a
:101db00061ecb70064003700c1448000d04480006b
:101dc000808f500060003200ca0ce2005e003a00d2
:101dd0000000eb0070668800c144800060042000b1
:101de000808f500045003400c1448000b0042000c2
:101df000808f500041003c00d00ce2003f003a00d0
:101e0000c02b2000c05f880010002000640c070079
:101e1000d1eb2a0020c0200039f9070022c02000a1
:101e20008000eb0010002000680c0700f80be200b7
:101e3000feff3a0010002000590c07000000eb00e4
:101e4000100798001e009000e20f500014003c00a4
:101e500061668000300020000088b9001e019000fb
:101e600082004000000420000088b90003402400e4
:101e7000030140009e009000000320000088b9008c
:101e8000c38920000080410082007800650e0700b1
:101e90001e0090000000e80010079800e9ff3700de
:101ea000606680000000e8006066880070c0b300d3
:101eb00061ecb70060668000e60f50000c003a004d
:101ec00010002000360c070011ec2a0020c0200072
:101ed0000bf9070022c020008000eb00100020005a
:101ee0003a0c0700f0c0b30061ecb70016003700f1
:101ef000200020007066880013003700c012200008
:101f0000c05f880010002000250c070091ec2a001b
:101f100020c02000faf8070022c020008000eb005b
:101f200010002000290c0700f80be200feff3a0029
:101f3000100020001a0c07002000200070668800a6
:101f400070c0b30061ecb7000080fa00000006002a
:101f50000200fa000000eb00000f7800f00f2000f4
:101f60009e0f100006003c00c08920009e0040002b
:101f70000040eb00804878001e0fe800f7ff3700b4
:101f80000000eb00000f7800f00f20009e0f100003
:101f900006003c00c09920009e0040000040eb007d
:101fa000804878001e0fe800f7ff37000000eb00c4
:101fb000c04488000000eb00d04488000000eb0023
:101fc0008066880020002000706688000000eb001a
:101fd000906688000080fa00000006000600fa0003
:101fe000881f78000000eb00000f78005e4ce200d4
:101ff0002000320010c6200021c0b30090cf100096
:1020000008003a00c055800085030700605f880023
:10201000715f8800605f8000715f8000d80b0700ef
:1020200007003700d055800095030700805f8800c7
:10203000915f8800805f8000915f8000d00b070077
:102040000040eb005eecb7005cccbf008000fb0002
:10205000140020008001eb003200200020c020008e
:10206000f008070022c020002100200010002000fe
:10207000d60b0700fa0be20043003a00614ce20085
:1020800041003200800c2000d05f880031ee2a0031
:1020900020c020009af8070088ccbf008080fb0099
:1020a00014002000130020002200200070c0200037
:1020b000dc08070089ccbf008080fb0014002000f2
:1020c000130020002200200000c12000d5080700d6
:1020d00022c020008000eb0020002000bb0b070086
:1020e00041ef2a0020c0200085f807009e0b070062
:1020f000823e200003002000b6f807001007980079
:102100001400200013002000420020009e009000d8
:1021100040c02000c3080700930b070042062000c0
:1021200003002000abf80700a20020001100090006
:102130000200d8008000fd00100798001400200065
:1021400013002000120020009e00900090c020008c
:10215000b408070010c6200022c0b300904f110041
:1021600003003a0040c4b30002ecb700020037009d
:1021700040c5b30002ecb70022c020008000eb0095
:1021800030002000910b070061ccbf000000fb0075
:1021900020079800ae019000e18f510071003200dd
:1021a0002e029000e10f520004003c002e0090002f
:1021b0000000e00008003200f7003700ae00900099
:1021c000e28f5000860032002e019000e30f510094
:1021d000b6003200f00037009e00780000042000b6
:1021e0000088b9000300250083004000c09920004a
:1021f000bb0d07009fc9bf008aecb70020c3b30026
:102200008a4ce30048003e000000eb00000f78001d
:102210008accbf000080fb009e0f100007003d002d
:10222000c4c820009e004200829a20001e00410087
:10223000904878001e0fe800f5ff3700920020005c
:102240008040eb00e0cb2000130907008200200053
:10225000019a2000e0cb20002ef807009ec9bf00a5
:102260008becb70051f02a0020c0200024f80700b2
:1022700022c020008000eb000000eb00530b0700a1
:10228000e2cb2000510020000000eb004f0b0700c4
:10229000b1f02a0020c0200019f807005cccbf0074
:1022a0008000fb00140020001300200032002000fa
:1022b00040c020005b0807008bccbf008080fb0083
:1022c000140020001300200022002000b0c02000d5
:1022d000540807008accbf008080fb001400200057
:1022e000130020002200200000c120004d0807003c
:1022f00022c020008000eb0010002000330b0700fc
:102300008bccbf0088ecb7000040eb0089ecb70035
:102310000000eb00d05f880061ccbf000040e80007
:1023200061ecb7009c003700c1f12a0020c02000fa
:10233000f3f7070022c020008000eb000000eb0054
:10234000220b0700b1f22a0020c02000ecf70700a2
:1023500022c020008000eb00100020001b0b0700b3
:102360008d00370080c82000f900070090c82000c9
:10237000f700070088ccbf000080fb0081ab200085
:102380008800070089ccbf000080fb0021b5200039
:10239000840007000000eb0040668800c055800004
:1023a0009f020700605f8800715f8800d055800041
:1023b000b3020700805f8800915f8800605f800043
:1023c000715f8000ee0a070040002000c05f8800b7
:1023d00061ccbf000040e80061ecb7006e00370040
:1023e000e10a0700e00f5000e08f580009003a00b2
:1023f000805f8000915f8000e10a07000000eb0031
:102400004066880061ccbf000040e80061ecb70086
:1024100061003700f80be2005f003a004000200046
:10242000c05f880041668000300020000008b800ce
:10243000e3ab2000030040009081fb004166800078
:10244000300020000008b800d4ab20000400400099
:102450001081fb0041668000300020000008b800b9
:10246000c4ab2000040040009080fb004066800068
:10247000c4c82000040040001080fb00e6040700f0
:10248000406680000000e800406688008accbf00fb
:102490008080fb0040668000810f50003e003500c8
:1024a0000000eb00406688003b003700f80be200bc
:1024b00039003a0040002000c05f8800aa0a0700e7
:1024c000e00f5000e08f580003003a0010c0b30046
:1024d00061ecb700300037000000eb00000f78001f
:1024e000200020009e0f100014003c0041ab200093
:1024f0001e84400041668000300020000008b800c3
:102500001e00400063b520000301400041668000ca
:10251000300020000008b8001e004000c4ab2000be
:102520000400400092407800104078006c020700e0
:10253000004c78001e0fe800e9ff3700b6cabf0064
:102540000081fb00b5cabf000082fb00b4cabf0017
:102550008080fb0040668000c3c82000030040006c
:102560001080fb008201780004017800aa040700b3
:10257000406680000000e800406688008accbf000a
:102580008080fb0040668000810f50000200350013
:102590000000eb00406688004f0478000080fa00dd
:1025a000000006001200fa00000f780011079800e2
:1025b0008accbf000080fb006c004000000f980038
:1025c0008accbf008080fb00300020000088b9006a
:1025d00064004000700798009e0078007e00900024
:1025e0000088b9000e099000000041002007980003
:1025f0002e00900002062000110009000200d80001
:10260000300798002e0090000206200011000900fb
:102610000200d8008000fd00400798000000eb0099
:1026200050079800be009000000420000088b90008
:102630000200250082004000c0992000a80c07007d
:10264000010620004e009000008150004e009000d6
:10265000c3992000808041001e0090003df70700d4
:10266000fe0090004e0090000080400001fa2f0014
:102670000100400070079800010620004e00900005
:1026800000805000500798007e0090000206200055
:10269000110009000200d8000000e000170034001b
:1026a0003e0090000000e8008000780031079800ac
:1026b000000420000088b9000200250082004000cc
:1026c000c0992000860c07009e0090005e009000dc
:1026d0000080400002062000c19920001df707007d
:1026e0007e00900003fa2f0003004000700798005e
:1026f0005e0090000006b000500798007e00900039
:102700000000e000100034003e0090000000e800ef
:102710008000780031079800000420000088b9008c
:102720000200250082004000c09920006c0c0700c8
:102730009e0090005e009000008040007e019000ae
:10274000c199200003f707000080fa00000006008e
:102750000200fa00000f78001e0078001048e80020
:102760009e007800b0c820009140780090cf5000c3
:10277000030039009e0078000040eb00804878009c
:102780000080fa00000006000400fa0061ccbf00df
:102790000000fb00100798001e0090000000e00001
:1027a000040032001e009000e10f500015003200be
:1027b0001500370091f32a0020c02000d0f6070052
:1027c00022c020008000eb000000eb00ff090700a2
:1027d00071f42a0020c02000c9f6070022c02000a2
:1027e0008000eb0010002000f809070061ccbf005a
:1027f0000040e80061ecb7000040eb009ceab70045
:10280000010037002f0807000080fa0000000600d2
:102810000400fa0061ccbf000000fb001007980024
:102820001e009000e10f5000310032001e009000a9
:10283000e10f500004003c001e0090000000e0008a
:10284000080032005a0037001e009000e20f5000ce
:10285000290032001e009000e30f500032003200c9
:102860005300370081f52a0020c02000a4f607009d
:1028700022c020008000eb000000eb00d30907001d
:1028800081f62a0020c020009df6070022c020000b
:102890008000eb0010002000cc09070061ccbf00d5
:1028a0000040e80061ecb7000040eb0082ecb700ac
:1028b0000040eb0083ecb7000040eb0086ecb70073
:1028c00030c0b30084ecb70040c0b30066ecb70082
:1028d0000040eb0067ecb70081f72a0080c62000bb
:1028e00087f607000040eb006decb70030003700c2
:1028f000b70207002e00370081c62000d0f72a005b
:102900009bf607000000e00004003a0061ccbf0025
:102910000040e80061ecb700250037000040eb0004
:1029200061ecb700220037000040eb0087ecb700f5
:1029300087ccbf00f7090700a20a070021f82a0088
:1029400020c020006ef6070022c020008000eb00af
:102950000000eb009d09070021f92a0020c020009b
:1029600067f6070022c020008000eb001000200066
:1029700096090700f1f92a0020c0200060f6070040
:1029800022c020008000eb00200020008f090700fb
:1029900001fb2a0020c0200059f6070022c02000b9
:1029a0008000eb0030002000880907009534070004
:1029b0000080fa00000006000400fa00881f78007a
:1029c0005e4ce200200032000040eb005eecb700fd
:1029d00010c6200021c0b30090cf100008003a00bc
:1029e000005580000e010700605f8800715f88005d
:1029f000605f8000715f8000610907000700370099
:102a0000105580001e010700805f8800915f8800dc
:102a1000805f8000915f8000590907005cccbf0097
:102a20008000fb00140020008001eb003200200039
:102a300020c020007b06070022c02000710020007b
:102a40000000eb0061090700fa0be20033003a00d6
:102a5000800c2000d05f880088ccbf008080fb0005
:102a6000140020008001eb002200200020c0200084
:102a70006c06070022c02000e10020000000eb00ef
:102a8000520907000000eb00000f78002000200032
:102a90009e0f100021003c00d1fb2a0020c0200026
:102aa00017f6070041aa20001e8040009080fb001e
:102ab00014002000130020003200200020c020005d
:102ac0005806070041ab20001e8040009080fb00ac
:102ad00014002000130020003200200070c02000ed
:102ae00050060700c1aa20001e8040009080fb0015
:102af000140020001300200032002000c0c020007d
:102b0000480607001e00e80022c020002100200027
:102b10002e0907001e0fe800dcff370061ccbf0064
:102b20000000fb00100798001e009000e10f50000d
:102b3000340032009e009000e18f500004003c0001
:102b40001e0090000000e00008003200b1003700d5
:102b50009e009000e28f50006b0032001e0090003b
:102b6000e30f500077003200aa003700b1fc2a00c2
:102b700020c02000e2f5070022c020008000eb000a
:102b80000000eb0011090700a1fd2a0020c0200071
:102b9000dbf5070022c020008000eb0010002000c1
:102ba0000a09070070c4b30002ecb70022c020007d
:102bb0008000eb00200020000409070020c4b300bf
:102bc00002ecb70022c020008000eb0030002000a3
:102bd000fe0807000040eb0088ecb70010c0b3000f
:102be00089ecb70010c0b3005eecb70061ccbf0049
:102bf0000040e80061ecb7006000b800e0080700a2
:102c00008400370088ccbf008080fb0000aa200031
:102c1000e1060700a00ae20002003a00a20ae20070
:102c20000600320000558000e10f40000300320032
:102c300010558000e10f400006003a000040eb0014
:102c400088ecb70088ccbf008080fb0000aa200081
:102c5000d106070089ccbf008080fb0080aa20003d
:102c6000cd060700a80ae20002003a00aa0ae20024
:102c70000600320040558000e10f400003003200a2
:102c800050558000e10f400006003a000040eb0084
:102c900089ecb70089ccbf008080fb0080aa2000af
:102ca000bd060700005580005d000700605f8800da
:102cb000715f8800a6cabf008081fb00a5cabf0063
:102cc0000081fb00a4cabf008080fb00f00f200041
:102cd000d1020700a4cabf00b4eab700a5cabf006a
:102ce000b5eab700a6cabf00b6eab700605f8000c9
:102cf000715f8000a208070061ccbf000040e800bf
:102d000061ecb7004300370097080700e00f500060
:102d1000e08f58003f003a0010558000580007002f
:102d2000805f8800915f8800805f8000915f8000f5
:102d30009308070061ccbf000040e80061ecb700d9
:102d400034003700f80be20032003a004000200067
:102d5000c05f880084080700e00f5000e08f580033
:102d600013003a0088ccbf000040e80088ecb700b0
:102d700089ccbf000040e80089ecb70030c6b30042
:102d8000884ce300020036000040eb0088ecb700fe
:102d900030c6b300894ce300020036000040eb006f
:102da00089ecb70010c0b30061ecb7001900370020
:102db0000000eb00000f7800210020009e8f100023
:102dc0000c003c0040ab20001e044000c1aa2000c3
:102dd0001e80400041aa20001e81400090407800e3
:102de000124078003e000700004c78001e0fe800fb
:102df000f1ff3700b6cabf008081fb00b5cabf0033
:102e00000081fb00b4cabf008080fb00f00f2000ef
:102e1000810207004f0478000080fa0000000600dd
:102e20000200fa00889fbe00000f78001e007800a4
:102e3000cf80de0076f5070002002000a3472400c3
:102e40009ef507000004be005cccbf000000fb0044
:102e5000cf80de006ef507000001be000800be0056
:102e600096f50700a2702d0033c2230093f50700ea
:102e7000c6f507004f04be000080fa0000000600ff
:102e80000200fa00889fbe00000f78001e00780044
:102e9000cf80de005ef5070002002000a34724007b
:102ea00086f507000004be005cccbf000000fb00fc
:102eb000cf80de0056f507000001be000800be000e
:102ec0007ef50700a2702d0033c223007bf50700ba
:102ed000aef507004f04be000080fa0000000600b7
:102ee0001400fa00004f780011479800805f8000be
:102ef000915f8000e00f5000e08f580004003a001e
:102f00001e4090000080fb00100f98002e0037003c
:102f1000805f8000915f80003df5070010079800fa
:102f2000210798001008070039f507000001be00ce
:102f30001e009000ae009000b5f507001e01900045
:102f4000ae01900010f60700300798004107980086
:102f50001e4090008080fb001e80fb00008050001f
:102f6000600798006e009000cf80de0028f5070013
:102f700070079800010f98003e019000ce0190006c
:102f80007e0090008e0890004cf5070002002000a3
:102f90000312240049f507007cf50700500798004c
:102fa0005e009000a8040700500798009e80fb0078
:102fb0005e00900001004000500798002e489000ed
:102fc0000080fb00100f98001e0890000080fa009f
:102fd000000006000600fa0061ccbf000000fb0004
:102fe000200798002e009000e10f500016003200dc
:102ff000ae019000e18f510004003c002e009000d3
:103000000000e000050032007d003700ae019000b6
:10301000e28f51002800320079003700a1fe2a001b
:1030200020c02000b6f4070022c02000410020008c
:103030000000eb00e507070061ccbf000040e8009e
:1030400061ecb7006e003700c1448000d0448000be
:10305000808f50006a003200a289200012007800a0
:1030600080007800c3892000838040009140780070
:10307000214798000000e80000097800d144800052
:10308000f00f200000806000d04488002e409000a7
:103090000004e0005a003d002e4090009ce9b7007b
:1030a00010002000f054880061ccbf000040e80010
:1030b00061ecb70052003700c1448000d04480006a
:1030c000808f50004e003200a2892000120078004c
:1030d00080007800c3892000838040009140780000
:1030e000214798000000e80000097800d1448000e2
:1030f000f00f200000806000d04488002e40900037
:103100000004e00006003d002e4090000074a10085
:103110009ce9b70010002000f05488003800370008
:10312000f0548000e30f50000a003c00e2a92000a8
:103130001200780080007800c3992000838040004e
:10314000ae419000834878000000e8000009780054
:103150002b0037009cc9bf000074a1009ce9b70098
:103160002e4090000000fb00610060000000e000c5
:10317000040032009dc9bf0001c8b30001407000c7
:103180009de9b7002e4090000000fb006200600047
:103190000000e000040032009ec9bf0001c8b30077
:1031a000014070009ee9b7002e4090000000fb0037
:1031b000640060000000e000040032009fc9bf000e
:1031c00001c8b300014070009fe9b7009fc9bf006c
:1031d0008081fb009ec9bf000081fb009dc9bf002c
:1031e0008080fb009cc9bf000080fb008a010700b3
:1031f0000000eb00f054880010c0b30061ecb70091
:103200000080fa00000006000400fa0061ccbf0054
:103210000000fb00100798001e0090000000e00076
:10322000040032001e009000e10f50003600320012
:10323000650037000040eb0087ecb70061e52a002d
:1032400020c020002ef4070022c020008000eb00e8
:103250000000eb005d07070021ff2a0020c02000ce
:1032600027f4070022c020008000eb00200020008f
:103270005607070010c0b30058ecb70061ccbf0080
:103280000040e80061ecb7000040eb0082ecb700c2
:103290000040eb0083ecb7000040eb0086ecb70089
:1032a00030c0b30084ecb70020c0b30066ecb700b8
:1032b0000040eb0067ecb70031002b0080c6200017
:1032c0000ff4070040c0b3006decb70050c0b3006e
:1032d0006eecb70081f72a00f0c6200008f4070062
:1032e00040c0b30074ecb700b0c0b30075ecb700d9
:1032f00081f72a0060c7200001f407000040eb00be
:103300007becb70030003700584ce20002003a0076
:103310005e4ce2002b0032000000eb00000f780052
:103320000040eb0058ecb7000040eb005eecb7004b
:103330000201200001c2b30020c02000d604070013
:103340004fccbf008080fb00140020001300200041
:103350003200200020c020003204070050ccbf0003
:103360008080fb00140020001300200032002000a9
:1033700070c020002b04070051ccbf008080fb00f0
:10338000140020001300200032002000c0c02000e4
:103390002404070051ccbf008081fb0050ccbf004b
:1033a0000081fb004fccbf008080fb00f00f2000ad
:1033b0001901070022c020008000eb00100020004f
:1033c00002070700020007000080fa000000060064
:1033d0000400fa0082ccbf000080fb0010079800b8
:1033e0001e009000e10f5000130032009e0090007c
:1033f000e18f50006f003c001e0190000200e000d1
:103400006c003a0082ccbf000040e80082ecb700bc
:10341000c500070010c0b30087ecb7000040eb0008
:1034200085ecb7000040eb0086ecb70087ccbf000e
:10343000380707005f0037004a4ce2005d003200a9
:103440000040eb004aecb700484ce20012003500a7
:1034500080c4200091c0b30090cf10000e003c004b
:1034600085ccbf000081fb0083ccbf008080fb00c7
:10347000700020000008b8000000410082c6200053
:103480008200400048ccbf0002c3b3008248400025
:103490004a000700a400070080c42000f1c0b30068
:1034a00090cf100004003a000040eb0061ecb70040
:1034b0000040eb0082ecb70080c42000e2c0b30003
:1034c000904f110031003a005f4ce20028003a00b2
:1034d00080c62000cf040700000f7800f0c620004f
:1034e000cc0407000055880060c72000c90407000d
:1034f000105588004fccbf00a4eab70050ccbf00e5
:10350000a5eab70051ccbf00a6eab7009e0078003c
:1035100000aa2000780407009e00780000ab20007d
:103520009d040700200620009e0f100001003c00b3
:103530001e0fe8000002eb008001eb0022002000db
:103540009e00780080c62000b603070010c0b300bc
:1035500083ecb7000040eb0085ecb700801f7800db
:103560006eccbf0086ecb7004f0078006e000700fd
:10357000f0c5200081c0b30090cf100003003a00d6
:1035800061ccbf000040e80061ecb70080c42000bf
:10359000c2c0b300904f110001003a003c00070088
:1035a00080c42000d1c0b30090cf100001003a00c9
:1035b000020007000080fa00000006000000fa0088
:1035c00085ccbf000040e80085ecb70083ccbf008d
:1035d0008080fb00700020000008b80062c6200058
:1035e0008200400050c8200010407800914f5000e9
:1035f0001800390083ccbf000040e80083ecb7001e
:103600000040eb0085ecb70083ccbf008080fb005e
:10361000700020000008b80062c6200002004000d0
:103620001004e0000b003a0083ccbf000040e9002a
:1036300083ecb70083ccbf008080fb0070002000cb
:103640000008b80062c62000020040001040e900f7
:1036500085ecb70083ccbf008080fb0070002000a9
:103660000008b80072c620008200400085ccbf0070
:103670001140400086ecb70041c82000914078001e
:1036800086ccbf00770607000080fa000000060025
:103690000000fa0085ccbf000040e90085ecb700cf
:1036a00050c8200080c0eb0090cf10000f003a00ff
:1036b0000040eb0085ecb700834ce2000b003200c9
:1036c00083ccbf000040e90083ecb70083ccbf008f
:1036d0008080fb00700020000008b80062c6200057
:1036e000020040001040e90085ecb70083ccbf0029
:1036f0008080fb00700020000008b80072c6200027
:103700008200400085ccbf001140400086ecb7002d
:1037100041c820009140780086ccbf0051060700c8
:103720000080fa00000006000600fa000000eb002e
:10373000000f78000201200001c2b30020c0200069
:10374000d50307009e007800700020000008b80034
:1037500062c62000020040001004e0002700320092
:103760009e007800700020000008b80072c620009b
:10377000020040001080fb00200798000000eb00d2
:10378000100798009e007800700020000008b80024
:1037900062c62000020040009080fb001e009000e6
:1037a000810f500013003d0064024700940178002f
:1037b0000300780021c02000810240009e007800b4
:1037c000700020000008b8001e01900002004000b8
:1037d00082c6200002004000904a78008301e80081
:1037e000030a78001e0090000000e800100798000f
:1037f000e4ff37001e0fe800d2ff370084ccbf0083
:103800000080fb0022c020008000eb00ef050700d5
:103810000080fa00000006000a00fa00000f78009d
:103820001107980022079800330798000000eb006a
:10383000400798009e009000f00f2000008060007c
:1038400021000700800078004e0090000100400039
:1038500040079800ae009000f00f2000008060004c
:1038600019000700800078004e0090000100400021
:1038700040079800be009000f00f2000008060001c
:1038800011000700800078004e0090000100400009
:1038900040079800001020001e007000c1020700c1
:1038a0001e009000bf0207002e009000bd0207001e
:1038b0003e009000bb0207004e009000b9020700d6
:1038c0000080fa00000006000600fa00000f7800f1
:1038d0000000eb001007980000c8b30040479800b4
:1038e0004e4090000004e0000d0032004e40900079
:1038f0000080fb001e0060000000e00003003a00b2
:103900001e0090000000e800100798004e40900054
:103910000080fb000000d10040479800f0ff370016
:103920001e0090000080fa00000006001200fa005d
:10393000881f7800560ce20074003a00e001200075
:10394000b062880068004700011480000108780018
:1039500068004700121480001200980068004700b9
:1039600021148000210098000000eb00200798003f
:103970002e009000e20f50002e003c00e8004700af
:103980002e0090000000d0000100400010007800e0
:10399000cf80de009ef20700fcf20700cf80de0041
:1039a0009bf2070012ff2000f3d72300c3f20700a9
:1039b0000200200003122400c0f20700f3f2070007
:1039c000300798002e009000f2c42000020440004e
:1039d0003e0090001c020700004c78002e00900072
:1039e000f2c42000820040002e00900022c520007a
:1039f000020040009140780090cf50000900320052
:103a000010c0b30058ecb7002e00900022c5200073
:103a1000820040002e009000f2c42000020040000e
:103a2000904878002e0090000000e80020079800e1
:103a3000cfff370030148000fe004000d0628000cd
:103a4000810f500005003e0030148000fe00500041
:103a5000d0628000810f50002a00310030148000b5
:103a6000d062880030148000cf80de0068f207004a
:103a700070079800010f98008602e20007003d00e1
:103a800002002000037824007e0090008e08900041
:103a9000e0f2070070079800010f980012b82000ac
:103aa00083bb23007e0090008e08900083f2070005
:103ab000020020000312240080f20700b3f2070086
:103ac000200798002e009000df0107000080fb0017
:103ad000200798002e009000d1ce20000100400069
:103ae000104078005cecb7005dccbf005c4ce3009c
:103af0000400320010c0b3005eecb7005cccbf0025
:103b00005decb7000000eb00200798004f04780040
:103b10000080fa00000006000200fa000040eb00fe
:103b2000004f7800640ce2002c003a00c003200033
:103b300020638800cfc2bf000080fb004600de008b
:103b40000080fb00610060000000e00001003a001e
:103b50001e4fe800cfc2bf000080fb004500de0022
:103b60000080fb00610060000000e00001003a00fe
:103b70001ecfe800c8c2bf000080fb004700de0087
:103b80000080fb000000e00002003a001e407800c8
:103b9000644f4000c8c2bf000080fb004600de004a
:103ba0000080fb00610060000000e00002003a00bd
:103bb0001e407800684f40001e4078005fecb70060
:103bc00060ccbf005f4ce300040032005fccbf005c
:103bd00060ecb70010c0b30062ecb7000080fa00e0
:103be000000006000600fa004bccbf000000fb00fe
:103bf000200798002e009000e20f50003a0032009b
:103c0000ae009000e28f500007003c002e009000b4
:103c10000000e0000b003200ae009000e18f500089
:103c20002b003200690037002e009000e30f500097
:103c300033003200ae009000e48f50005400320098
:103c4000620037000000eb000506070010002000ae
:103c5000b30007000000eb00000f780030002000e8
:103c60009e0f100012003c001e4078005900070013
:103c7000830007000000fb00100798001e00900062
:103c80000000e000080032009e00780040002000a4
:103c90000088b900804078002e40900000c04000ad
:103ca0004eecb700040037001e0fe800ebff3700b2
:103cb0000040eb004eecb7004bccbf000040e800ea
:103cc0004becb70010002000950007003f003700c4
:103cd00040012000606288004bccbf000040e8003b
:103ce0004becb700390037004c0ce20037003a00cb
:103cf0004bccbf000040e8004becb700330037006e
:103d00000000eb00d605070010002000840007002b
:103d10000000eb00000f7800310020009e8f1000a3
:103d200013003c001e4078002a00070054000700e2
:103d30000000fb00100798001e0090000000e0004b
:103d4000090032004eccbf008001fb009e007800cd
:103d5000400020000088b9001e01900002004000d1
:103d6000808f5100040032001e0fe800eaff370088
:103d70000040eb004eecb7004bccbf000040e80029
:103d80004becb70010002000650007000f00370063
:103d90004eccbf000000fb00c1cd20000100400060
:103da0001040780048ecb70048ccbf00494ce30015
:103db0000400320048ccbf0049ecb70010c0b3008b
:103dc0004aecb7000040eb004becb7000080fa0073
:103dd000000006000400fa00004f7800d462a90039
:103de000c762a900c782a900d202a900d222a900f5
:103df000a1168000c0ff2f0000806000a016880080
:103e000041168000f07f2e00008060004016880080
:103e10001e00fb00100798001e009000e10f5000ec
:103e2000100032001e009000e10f500004003c0022
:103e30001e0090000000e000080032000e00370075
:103e40001e009000e20f5000080032001e0090009b
:103e5000e30f50000700320007003700c962a800d6
:103e600005003700c982a80003003700d402a8006b
:103e700001003700d422a8000080fa0000000600ec
:103e80000200fa000040eb00004f7800e0c2bf00e3
:103e90000080fb0061006000e10f500002003a006a
:103ea00010c0b300004f7800e0c2bf000080fb00ec
:103eb0000000d1000080fb0061006000e10f5000b5
:103ec00002003a0020c0b300004f7800e0c2bf00fb
:103ed0000080fb004600de000080fb006100600007
:103ee000e10f500002003a0030c0b300004f7800ec
:103ef000d4c2bf000080fb004200de000080fb0057
:103f000061006000e10f500002003a0040c0b300c1
:103f1000004f78001e00fb000080fa000000060041
:103f20000400fa00000f78001e00780010079800c7
:103f30002e40900061416000012e200091407800e9
:103f4000e0cfb30000c0600002407000e0e2b700c4
:103f50002e409000614060000041d000012e200002
:103f600091407800d0cfb30000c0600002407000e4
:103f7000e0e2b7002e409000614060004601dd00a5
:103f8000012e200091407800f0cbb30000c060000b
:103f900002407000e0e2b7002e40900061406000f7
:103fa0004201dd00412d200091407800b0cfb300e8
:103fb00000c0600002407000d4e2b7000080fa0048
:103fc000000006000000fa0000e823001008880046
:103fd00005e1a8005109200091407800f0c8b30025
:103fe00000c0600001c5b3000140700095e0b7005b
:103ff0008c60a8000080fa00000006000000fa00b3
:104000000000eb00001588000000eb001015880090
:104010000000eb00201588000000eb003015880040
:104020000080eb00401588000000eb005015880070
:10403000112a200091407800c0cfb30000c060007a
:10404000a1e2b700012a20009140780000ceb30021
:1040500000c07000a0e2b700a042a800312a2000f2
:104060009140780000ceb30000c07000a3e2b7001a
:10407000212a20009140780030ccb30000c06000bd
:104080008041b300a2e2b700a342a800512a200059
:104090009140780000ceb30000c060000024a00072
:1040a000a5e2b700412a20009140780000ccb3007f
:1040b00000c06000d040b300a4e2b700a682a9000f
:1040c0004115800000ff2f0000806000401588002f
:1040d000f000200050158800a1e2a8000080fa003e
:1040e000000006000000fa00cdc2a800cda2a80082
:1040f000c6e2a800c6c2a8000080fa0000000600c0
:104100000000fa0030032000a01088000de2a80093
:104110000c02a900c12020009140780090cfb3008c
:1041200000c060000ce2b7000fe2a8000ea2a900d8
:104130000f42a8008109200091407800f0c8b30028
:1041400000c0600001c3b3000140700098e0b700f8
:10415000910920009140780080cfb30000c060003a
:104160003040b30099e0b7008d20a8008d40a80032
:104170000080fa00000006000000fa003003200072
:10418000f010880017e2a8001602a80016c2bf00af
:104190006040b30016e2b70019e2a80018a2a80018
:1041a0001942a800010a200091407800f0c8b3002d
:1041b00000c0600001c3b30001407000a0e0b70080
:1041c0008f20a800d302a900d502a8000080fa0021
:1041d000000006000000fa0011e1a8000111200013
:1041e00091407800f0ccb30000c060000044a00013
:1041f00010e1b700d322a80046e1a8006114200016
:104200009140780080cfb30000c060000004a0009f
:1042100046e1b700610920009140780080cfb300eb
:1042200000c060006040b30096e0b7008480a90041
:104230008c80a8000080fa00000006000000fa0050
:104240000080fa00000006000400fa00000f780069
:104250001e007800a2002000110009000200d80012
:104260008000fd00e40f5000070034001e007800bd
:10427000a2002000110009000200d8000000e800a0
:1042800010079800050037001e007800a2002000eb
:10429000110009000200d800100798001e009000cd
:1042a0000080fa00000006000800fa00000f780005
:1042b000110798000000eb0020079800ae00900066
:1042c0001e009000808f500034003d002e009000b2
:1042d0001e0040001000fb00300798003e009000d8
:1042e000f70f50001b0032003e009000f70f500007
:1042f00007003c003e009000f50f50000b0032001c
:104300003e009000f60f50000d0032001f003700f5
:104310003e009000f80f5000130032003e00900065
:10432000f90f500015003200180037002e009000e1
:104330009e00400010c9b300804878001300370089
:104340002e0090009e00400050c8b30080487800c6
:104350000e0037002e0090009e00400000cab300ff
:1043600080487800090037002e0090009e00400031
:1043700050cab30080487800040037002e00900037
:104380009e004000f0cdb300804878002e009000e1
:104390000000e80020079800c8ff37000080fa00fe
:1043a000000006000200fa00000f780002882000da
:1043b00092007800010078000000d0000380200007
:1043c000030040001e0878008100e8000109780021
:1043d00001448000f0032000008060000044880059
:1043e0000080fa00000006000200fa00004f78008a
:1043f0004289200012007800800078004388200065
:10440000838040009e4878000000e80000097800a2
:10441000a04480006f006000a04488000080fa0083
:10442000000006001200fa00000f78001107980043
:104430002207980033079800440798001e00900058
:10444000500798000040eb00005798000000eb0078
:10445000600798002e009000e10f500058003200d5
:104460002e009000e20f5000430032002e0090001a
:10447000e30f50002e0032002e009000e40f500099
:10448000190032005e009000027122001100090044
:104490000280d800700798007e0090000000e000c5
:1044a0000b003200ec014700930078000100780017
:1044b0001e0140006e48900004c3b3000449400050
:1044c0008100e8008109780010c0b300005798000f
:1044d0007e009000e90f5000030036007e0090003f
:1044e0000000e800700798005e0090000271220052
:1044f000110009000280d8008000fd00823e2000eb
:10450000110009000280d80070079800ec014700f4
:1045100093007800010078001e0140006e48900072
:1045200004c3b300044940008100e8008109780019
:104530005e009000823e2000110009000280d80039
:104540008000fd0042062000110009000280d80012
:1045500070079800ec014700930078000100780094
:104560001e0140006e48900004c3b300044940009f
:104570008100e800810978005e009000420620007a
:10458000110009000280d8008000fd00a200200078
:10459000110009000280d80070079800ec01470064
:1045a00093007800010078001e0140006e489000e2
:1045b00004c3b300044940008100e8008109780089
:1045c0005e009000a2002000110009000280d800c7
:1045d0008000fd0070079800ec0147009300780010
:1045e000010078001e0140006e48900004c3b30033
:1045f000044940008100e800810978003e009000f5
:104600000000e00008003a00ec0147009300780049
:10461000010078001e0140000040eb0000497800d6
:104620008100e800810978004e009000e10f500001
:1046300017003a002e009000e10f500014003400e3
:104640000000eb00600798002e0090008000e90059
:104650006e009000810f50000d003d006e00900034
:104660009e00400000c3b300914f100008003a00c4
:104670006e0090009e00400000c2b30080487800a9
:104680006e0090000000e80060079800eeff370021
:104690000080fa00000006000800fa00000f780011
:1046a00021479800220798000000eb00300798008f
:1046b000be0090002e009000808f500008003d004a
:1046c0003e0090001e004000ae409000014878007f
:1046d0003e0090000000e80030079800f4ff37002b
:1046e0002e0090009e0040000040eb0080487800c3
:1046f0000080fa00000006000600fa00000f7800b3
:10470000110798001e0090004200200011000900cf
:104710000200d8008000fd00000220000088b900df
:1047200002c02f0002004000200798000301200073
:1047300022c02000ae009000f007200077040700a0
:104740001e00900042002000110009000200d80065
:10475000800020000088b90022c020000000410035
:10476000820020009e007800faee0700020120007f
:10477000ae009000f0072000750407000301200040
:104780002e019000f107200020c0200094040700b3
:104790000080fa00000006000600fa00000f780012
:1047a000110798001e00900042002000110009002f
:1047b0000200d8008000fd00000220000088b9003f
:1047c00002c02f00020040002007980003012000d3
:1047d00022c02000ae009000f00720004f04070028
:1047e0001e00900042002000110009000200d800c5
:1047f000800020000088b90022c020008000410015
:10480000820020001e007800d2ee07000080fa002f
:10481000000006000800fa00000f780010002000d9
:10482000200798000000eb00300798001e00780079
:10483000e1ee07000000e900100798001e0090005c
:104840000000e0001c0035001e0090009e004000ab
:10485000f0c2b300914f1000130034001e0090000e
:104860009e00400090c3b300914f10000e003c002a
:104870001e0090001e0040001000fb0002fd2f00f3
:10488000820040002e0090000088b9003e01900098
:104890000000410030079800ae009000a00020000a
:1048a0000088b900200798001e0090000000e90071
:1048b00010079800e1ff37003e0090000080fa00ea
:1048c000000006000600fa000e00780088010700cc
:1048d000100798009ccabf000080fb0020079800ca
:1048e0002e009000e10f500017003200ae01900042
:1048f000e18f510004003c002e0090000000e00019
:104900000800320042003700ae019000e28f5100f3
:10491000310032002e009000e30f500038003200ca
:104920003b00370023c0b3009ecf110038003a008f
:1049300040012000006088009ccabf000040e800e1
:104940009ceab70032003700000ce20002003a0097
:1049500030c0b3009ceab70030c0b3009e4f1000d7
:1049600006003a009ccabf000040e8009ceab7007d
:104970000000eb000060880025003700f154800043
:10498000200d2000808f500005003a0030c0b30099
:104990009ceab7000000eb00006088001c003700b4
:1049a0001e0090000000e00019003200e2a9200083
:1049b0001200780080007800c399200083804000b6
:1049c0009e4878000000e8000009780040012000bf
:1049d000006088000e0037008d000700e10f4000e6
:1049e00002003a0085000700010037000a000700b6
:1049f0009ccabf000040e8009ceab70004003700f2
:104a00000040eb009ceab7000000eb00f054880087
:104a10000080fa00000006000800fa009cc9bf00f0
:104a20000080fb003007980050042000be0090007a
:104a3000808f500062003200500420003e01900040
:104a4000800f510005003c0040042000be00900093
:104a5000808f500023003200610037009004200056
:104a60003e019000800f51005d003a0090c4b300f9
:104a70005dfe070090ccb3005bfe07000040eb003a
:104a800059fe070000e024002007980080c0eb00da
:104a90004e40900000c0600053fe07002e009000c2
:104aa000c880de0000c0eb00014060004efe070041
:104ab00020c3b3004cfe07000201200001c2b30076
:104ac00020c02000f4fe07000040eb0012ecb7000d
:104ad00022c020008000eb00200020003b010700e6
:104ae0003f00370040000700a20007009c49e20099
:104af0000b003a0061002b0020c0200000ee0700f0
:104b000082002000119a200080c0200001ee0700e2
:104b100022c020008000eb000000eb002b0107000a
:104b20000201200001c2b30020c02000dafe07000d
:104b30000040eb0012ecb7000000eb00000f780023
:104b40009cc9bf000080fb00e200200011000900aa
:104b50000280d8008000fd000080fb009e0f100046
:104b600006003d0020c020009e004000d0c2b300df
:104b7000804878001e0fe800f1ff370022c02000b7
:104b80009e004100e0c3b3008048780022c02000ae
:104b90008000eb00100020000c0107009cc9bf0042
:104ba0008080fb00000420000088b900020025007e
:104bb00082004000d09920001a0307000800370047
:104bc00009000700d1002b0020c02000cced070019
:104bd00022c020008000eb0020002000fb00070026
:104be0000080fa00000006000000fa0060c0b30078
:104bf000fdfd07000080fa00000006000000fa003a
:104c000050c1b300f8fd07000080fa000000060064
:104c10000800fa000000eb00100798000000eb000d
:104c2000000f7800f05480000080e9009e0f100013
:104c300008003d00c19920001e8040009080fb00cc
:104c40001e00900001006800100798001e0fe80089
:104c5000f4ff3700f0548000b29920008200400039
:104c6000f0548000a299200002004000914078009a
:104c7000104078000e0007000080fb00200798001d
:104c80009e0090002e009000808f500003003a009c
:104c90000000eb0030079800020037008080eb0036
:104ca000310798003e0090000080fa0000000600e6
:104cb0000400fa00004f780011479800f0c2b300da
:104cc0009e4f10000b00340090c3b3009e4f1000a5
:104cd00008003c009e00fb00000120000088b90095
:104ce000804078000040eb0000c040002047980062
:104cf000070037009e00fb00000120000088b9007b
:104d00008040780000c9b30000c0400020479800f0
:104d10009e409000f0c2b30080cf50000b003400e2
:104d20009e40900090c3b30080cf500007003c002d
:104d3000ae4090001e40900080c0400000cdb30007
:104d400000c040002047980006003700ae409000a9
:104d50001e40900080c0400090ccb30000c04000d6
:104d6000204798002e4090000080fb000080fa0051
:104d7000000006000400fa0010002000000f780078
:104d8000f0548000630050009e0f100013003d009f
:104d9000d19920001e804000c19920001e81400052
:104da0009040780012407800c1ff0700204798002b
:104db0001e00780022002000110009000200d80027
:104dc000c199200001004000ae40900001487800e9
:104dd0001e0fe8001e0fe800e9ff37000080fa0010
:104de000000006000600fa00004f78001107980046
:104df0001e00fb0002012000110009000200d80083
:104e00000000fb00200798002e0090006f0060005b
:104e1000200798002e009000e90f500009003c0088
:104e20008e81e800130178004e4090000043b000ee
:104e300082007800804878000201e800820978004a
:104e4000080037008e81e800130178004e40900082
:104e50007043b00082007800804878000201e800ca
:104e6000820978001e00fb006f006000e90f50000f
:104e70000a003c008e81e800130178009e40780013
:104e80006fc060000043b000820078008048780066
:104e90000201e80082097800090037008e81e800ed
:104ea000130178009e4078006fc060007043b0002e
:104eb00082007800804878000201e80082097800ca
:104ec0008e81e800130078000001780031c0b30043
:104ed000014978000000e800800978009e009000f9
:104ee0000040eb00804878000080fa0000000600d7
:104ef0000400fa00000f7800c1448000d044800014
:104f0000808f500006003a009e0078000040eb00c1
:104f1000804878000000eb00100798000f00370071
:104f20009e017800a289200012007800800078009d
:104f3000c489200084804000914978000000e80086
:104f400000097800d1448000f00f2000008060004c
:104f5000d044880010002000100798001e00900028
:104f60000080fa00000006000000fa000a00fc00c1
:104f7000a05f8000b15f80000080fa0000000600a2
:104f80000400fa00008fbe001400fc001e00be00ea
:104f9000a05f8800b15f88000080fa000000060072
:104fa0000200fa00000f7800e1012b0020c0200071
:104fb000d3ec070022c020008000eb001e00780028
:104fc000020007000080fa00000006000800fa0056
:104fd000000f780011079800220798000040eb00ae
:104fe0004c0007009e4078002e4090001d000700f6
:104ff0002e009000f00040000040eb008048780058
:105000000000eb00300798002e009000eaec07004b
:10501000800078003e009000810f500009003100b0
:10502000ae0090003e0090000080400010407800ec
:10503000440007003e0090000000e80030079800a0
:10504000f1ff370041c820009140780086ccbf00b6
:105050000400070087ccbf002e0007000080fa0084
:10506000000006000600fa00004f78001147980083
:105070001e4090000000fb00200798002e009000ca
:10508000e10f5000110032002e009000e10f50009f
:1050900004003c002e0090000000e00008003200f8
:1050a000120037002e009000e20f50000a0032007c
:1050b0002e009000e30f50000a0032000b00370072
:1050c00000c8b300204798000800370000ccb300a8
:1050d000204798000500370000c9b300204798001a
:1050e0000200370000cdb300204798002e4090000a
:1050f0001e40400020479800c362a900d462a90066
:105100002e4090000f000700c362a8000080fa0044
:10511000000006000200fa00004f7800a00007001f
:105120001e04e00003003a00c0c0b3000500070001
:1051300002003700f0c0b300020007000080fa0050
:10514000000006000200fa00004f78006d00070022
:105150001e00fb0061006000614060004401dd0052
:10516000812c200091407800f0ceb30000c0600098
:1051700002407000c8e2b7001e00fb000080d100b2
:10518000004f78001e00fb0061006000614160007c
:10519000912c200091407800e0cfb30000c0600067
:1051a00002407000c9e2b7001e00fb000080d10081
:1051b000004f78001e00fb0061006000614060004d
:1051c0000041d000912c200091407800d0cfb30056
:1051d00000c0600002407000c9e2b7001e00fb0082
:1051e0000080d100004f78001e00fb0061006000cd
:1051f000614060004201dd00912c20009140780068
:10520000b0cfb30000c0600002407000c9e2b70038
:105210001e00fb000080d100004f7800c962a8008a
:105220001e00fb0061006000614060004301dd0082
:10523000912c20009140780070cfb30000c0600036
:1052400002407000c9e2b7001e00fb000080d100e0
:10525000004f78001e00fb006100600061406000ac
:105260004401dd00912c200091407800f0ceb30085
:1052700000c0600002407000c9e2b7001e00fb00e1
:105280000080d100004f78001e00fb00610060002c
:1052900061416000412d200091407800e0cfb300d3
:1052a00000c0600002407000d4e2b7001e00fb00a6
:1052b0000080d100004f78001e00fb0061006000fc
:1052c000614060000041d000412d200091407800f5
:1052d000d0cfb30000c0600002407000d4e2b7003d
:1052e0001e00fb000080d100004f7800c8a2a8007b
:1052f000400120004d000700c8a2a9000080fa006c
:10530000000006000200fa00c3c2bf000080fb00dc
:105310004300de000080fb00610f600010002000f1
:105320004f000700d462a800c362a900c8a2a80069
:10533000400120003d000700d4c2bf000080fb00f8
:105340000000d1000080fb00610060000000e00070
:1053500004003200c8a2a900400120003300070069
:10536000f2ff3700c8a2a9000000eb003c000700d4
:10537000d462a9009e40780061c060004301dd0056
:10538000312c20009140780070cfb30000c0600045
:1053900002407000c3e2b7000080fa00000006007f
:1053a0000000fa00c162a900d262a900c6a2a90049
:1053b000c8a2a900d462a900c362a9000080fa00b3
:1053c000000006000000fa00f5ff070010c0b3005f
:1053d0005cff07000080fa00000006000000fa00f1
:1053e000efff0700e0c3b30056ff070080c0b30023
:1053f00054ff070080c3b30052ff0700c0c0b300d2
:1054000050ff070010c0b3004eff070060c0b3009c
:105410004cff07000000eb00806b88000000eb00f1
:10542000906b88000080fa00000006000400fa007b
:10543000000f78000000eb00100798001e0090009d
:105440009e0f500004003d001e0090000000e80088
:1054500010079800f9ff37000080fa0000000600ee
:105460000400fa00000f78001e0078001007980072
:105470002e409000614060004401dd00612c20005e
:1054800091407800f0ceb30000c060000240700090
:10549000c6e2b7002e40900061416000712c2000f0
:1054a00091407800e0cfb30000c06000024070007f
:1054b000c7e2b7002e409000614060000041d0007c
:1054c000712c200091407800d0cfb30000c0600064
:1054d00002407000c7e2b7002e40900061406000bb
:1054e0004201dd00712c200091407800b0cfb30064
:1054f00000c0600002407000c7e2b7002e4090007c
:10550000614060004301dd00712c20009140780073
:1055100070cfb30000c0600002407000c7e2b70067
:105520002e409000614060004401dd00712c20009d
:1055300091407800f0ceb30000c0600002407000df
:10554000c7e2b7002e40900061416000212d20008d
:1055500091407800e0cfb30000c0600002407000ce
:10556000d2e2b7002e409000614060000041d000c0
:10557000212d200091407800d0cfb30000c0600002
:1055800002407000d2e2b7000080fa00000006007e
:10559000000006004200f800809fbe00f80be20009
:1055a0004220ae00f82bed00fa0be2004220ae00e4
:1055b000fa2bed00fc0be2004220ae00fc2bed00cc
:1055c000fe0be2004220ae00fe2bed00000ce200dc
:1055d0004220ae00002ced004c0ce2004220ae0058
:1055e0004c2ced00560ce2004220ae00562ced0093
:1055f000ca0ce2004220ae00ca2ced00d80ce2003a
:105600004220ae00d82ced00640ce2004220ae0037
:10561000642ced00f40be2004220ae001a2b0400d3
:1056200000000000f60be2004220af00282b04002f
:1056300000000000f42bed004200af00282b040016
:1056400000000000f60be20001003200f62bed0036
:1056500000448000114480000100e100030032009a
:105660001902ab00010032008720a800a04480008e
:10567000b14480000100e100030032001902ab00d8
:10568000010032008540a8000200fc008460a900ef
:105690004f00be004200f900004006004200f80042
:1056a000809fbe00829fbe0090108000c144800099
:1056b000c289200002814000004978008100e80092
:1056c000f10fb200c14488000200fc008520a9004f
:1056d0004f01be004f00be004200f900004006002e
:1056e0004200f800809fbe00829fbe00e010800054
:1056f00002448000134480000218e10008003200d8
:10570000028020008300d000028140001200780057
:105710008301e800f303b20013448800d01088002e
:105720000200fc008720a9004f01be004f00be0010
:105730004200f900004006004200f800809fbe00d1
:10574000829fbe00a2448000b34480000218e100a2
:105750000800320042882000830078000281400067
:10576000124078008301e800f300b200b3448800df
:10577000801088000200fc008540a9004f01be0097
:105780004f00be004200f900004006004200f80051
:105790000621ef00809fbe00829fbe0070668000e1
:1057a0000000e000180032006100e1000600320055
:1057b00010002000706688009828ef009a28ef00fb
:1057c000042c040000000000230a80004661ab00a6
:1057d000fdff3a00c1892000c24480000201d000d0
:1057e000f20fb20082804000d522ab0001003a00e7
:1057f00003f0a00083187800c24480000201e80092
:10580000f20fb200c2448800a00020005066880059
:105810008480a9004f01be004f00be004200f90085
:1058200000400600809fbe0010042400003b88005a
:105830006427ef00113b88004200f800000e2000b2
:105840004220b70050052000303b8800a00a20000d
:10585000303b880061e7a800000000000000000065
:105860004200f90061e7af00feff370004022000ac
:105870003220ef0010002400003b88004f00be00e3
:1058800030437800b0437800b042780085c8bb0050
:105890008658bb008758bb000402e900f8ff3a00b5
:1058a0004200f800000e20004220b7005005200002
:1058b000303b8800a00a2000303b880061e7a80048
:1058c00000000000000000004200f900000000009d
:1058d0000000000061e7af00feff37000000060097
:1058e000849fbe00869fbe00040220003220ef008d
:1058f00091c2ba003143ba00b143ba0006587800e9
:1059000007587800055878000402e900f7ff3a00cc
:105910004f03be004f02be00000006003200f80038
:10592000900188006118e100040032007018e10065
:1059300002003200f0ff2f00030037003119ba00d7
:105940008301e900fdff3a003200f9000000060083
:10595000849fbe004220a900440424006110e1009d
:105960000a003200540424007010e10007003200e5
:1059700064042400f5ff2f000510e100030032004d
:10598000f0ff2f004f02be00000006003200f800ba
:10599000203b8800113b8800043b88004200f8004f
:1059a000000e20004220b70050052000303b880048
:1059b000a00a2000303b880061e7a800000000003a
:1059c0000000000061e7af00feff37000000eb00c1
:1059d0004200f9003200f9004f02be00000006004c
:1059e000841f78004220a900440024006118e100cf
:1059f00006003200540024007018e1000300320059
:105a00004f027800f0ff2f00000006003200f8007f
:105a100091018800821f78003019bb008301e900e2
:105a2000fdff3a00213b88004f017800123b8800bf
:105a3000043b88004200f800000e20004220b7001e
:105a400050052000303b8800a00a2000303b880031
:105a500061e7a800000000000000000061e7af005f
:105a6000feff37000000eb004200f9003200f900b1
:085a70004f027800000006005f
:020000040000fa
:0200000401f009
:04000000e5ff000018
:020000040000fa
:0200000401f009
:04000400ff7f00007a
:020000040000fa
:0200000401f009
:040008006cff000089
:020000040000fa
:0200000401f009
:04001400ffff0000ea
:020000040000fa
:10000800b47f0000b47f0000b47f0000c82a00005d
:10001800b47f0000b47f0000b47f0000b47f00000c
:10002800b47f0000b47f0000b47f0000ca2a00003b
:10003800c62b0000b47f0000b47f0000b47f00002e
:10004800b47f00004e2b00009c2b0000b47f000002
:10005800b47f0000b47f0000b47f0000b47f0000cc
:10006800b47f0000b47f0000b47f0000b47f0000bc
:10007800b47f0000b47f0000b47f0000b47f0000ac
:10008800b47f0000702b0000b47f0000b47f000034
:10009800b47f0000b47f0000b47f0000b47f00008c
:1000a800b47f0000b47f0000b47f0000b47f00007c
:1000b800b47f0000b47f0000b47f0000b47f00006c
:1000c800b47f0000b47f0000b47f0000b47f00005c
:1000d800b47f0000b47f0000b47f0000b47f00004c
:1000e800b47f0000b47f0000b47f0000b47f00003c
:0800f800b47f0000b47f00009a
:020000040000fa
:10010800b47f0000b47f0000b47f0000c82a00005c
:10011800b47f0000b47f0000b47f0000b47f00000b
:10012800b47f0000b47f0000b47f0000ca2a00003a
:10013800c62b0000b47f0000b47f0000b47f00002d
:10014800b47f00004e2b00009c2b0000b47f000001
:10015800b47f0000b47f0000b47f0000b47f0000cb
:10016800b47f0000b47f0000b47f0000b47f0000bb
:10017800b47f0000b47f0000b47f0000b47f0000ab
:10018800b47f0000702b0000b47f0000b47f000033
:10019800b47f0000b47f0000b47f0000b47f00008b
:1001a800b47f0000b47f0000b47f0000b47f00007b
:1001b800b47f0000b47f0000b47f0000b47f00006b
:1001c800b47f0000b47f0000b47f0000b47f00005b
:1001d800b47f0000b47f0000b47f0000b47f00004b
:1001e800b47f0000b47f0000b47f0000b47f00003b
:0801f800b47f0000b47f000099
:020000040000fa
