:020000040000FA
:06000000000000002928A9
:08000800FD00030E8301FE0060
:100010000D1F1328061283161C0883120108A00066
:100020000D130B1D24280612770881070B11A30F4F
:100030001A28A3037408F90703180616781C242845
:100040007608F7007308F4007E0E8300FD0E7D0E27
:10005000090064000000203084008001840A841FAD
:100060002D2883167E308F009001831283168030F6
:1000700081008312831616309B008312850186014E
:10008000A1309F00831640309F00FF308500EF3085
:10009000860083128501860160308B008316003054
:1000A0008C0083128C01831640308D0083128D01E9
:1000B000831625309C0022309D008312253090004D
:1000C0008316453098008312D0309800831619307B
:1000D00099008312EC207F30A200851D2210061C9F
:1000E000A210861C2211861DA211861E2212861FB6
:1000F000A212061F22138B171A08AF00640000001B
:100100007F3022067F39031DA4281F19EC201E080A
:10011000BD00B100BE00B200BF00B3001F153D0816
:10012000851B3F08051B3E08F100781003308A004C
:100130007108FF228A01F30005308A007108FF244C
:100140008A01F60078147E289818181218168C1E4A
:100150007E281A08AF00A31B0000A3011818C720AF
:100160002618C5280B30240203187E2831302407B6
:10017000840003302402031CD32003302406031917
:10018000E0202F088000A40A8F2826107E28261041
:10019000FF302F060319261422082F0603192614F0
:1001A0002618A4010800A4080319B0012F08AE0006
:1001B0000830AD00AE0C031CB00AAD0BDA28080005
:1001C0002F081F393006031D08003108BD00320812
:1001D000BE003308BF000800D930FB0064000000F7
:0601E000FB0FEE280800F1
:0205FE00820772
:1006000010341034113412341334143415341634B5
:100610001734183419341A341B341C341D341E3466
:100620001F341F342034213422342334243425341D
:1006300026342734283429342A342B342C342D34CE
:100640002E342E342F343034313432343334343485
:10065000353436343734383439343A343B343C3436
:100660003D343D343E343F344034413442344334ED
:100670004434453446344734483449344A344B349E
:100680004C344C344D344E344F3450345134523455
:1006900053345434553456345734583459345A3406
:1006A0005B345B345C345D345E345F3460346134BD
:1006B000623463346434653466346734683469346E
:1006C0006A346A346B346C346D346E346F34703425
:1006D00071347234733474347534763477347834D6
:1006E000793479347A347B347C347D347E347F348D
:1006F000803481348234833484348534863487343E
:100700008834883489348A348B348C348D348E34F4
:100710008F349034913492349334943495349634A5
:1007200097349734983499349A349B349C349D345C
:100730009E349F34A034A134A234A334A434A5340D
:10074000A634A634A734A834A934AA34AB34AC34C4
:10075000AD34AE34AF34B034B134B234B334B43475
:10076000B534B534B634B734B834B934BA34BB342C
:10077000BC34BD34BE34BF34C034C134C234C334DD
:10078000C434C434C534C634C734C834C934CA3494
:10079000CB34CC34CD34CE34CF34D034D134D23445
:1007A000D334D334D434D534D634D734D834D934FC
:1007B000DA34DB34DC34DD34DE34DF34E034E134AD
:1007C000E234E234E334E434E534E634E734E83464
:1007D000E934EA34EB34EC34ED34EE34EF34F03415
:1007E000F134F134F234F334F434F534F634F734CC
:1007F000F834F934FA34FB34FC34FD34FE34FF347D
:0209FE0082076E
:100A0000003401340234033404340434053406342D
:100A100007340834083409340A340B340C340D34E8
:100A20000D340E340F3410341134113412341334A5
:100A300014341534153416341734183419341A3460
:100A40001A341B341C341D341E341E341F3420341D
:100A500021342234223423342434253426342734D8
:100A60002734283429342A342B342B342C342D3495
:100A70002E342F342F343034313432343334343450
:100A800034343534363437343834383439343A340D
:100A90003B343C343C343D343E343F3440344134C8
:100AA0004134423443344434453445344634473485
:100AB0004834493449344A344B344C344D344E3440
:100AC0004E344F34503451345234523453345434FD
:100AD0005534563456345734583459345A345B34B8
:100AE0005B345C345D345E345F345F346034613475
:100AF0006234633463346434653466346734683430
:100B0000683469346A346B346C346C346D346E34EC
:100B10006F347034703471347234733474347534A7
:100B20007534763477347834793479347A347B3464
:100B30007C347D347D347E347F348034813482341F
:100B400082348334843485348634863487348834DC
:100B500089348A348A348B348C348D348E348F3497
:100B60008F34903491349234933493349434953454
:100B7000963497349734983499349A349B349C340F
:100B80009C349D349E349F34A034A034A134A234CC
:100B9000A334A434A434A534A634A734A834A93487
:100BA000A934AA34AB34AC34AD34AD34AE34AF3444
:100BB000B034B134B134B234B334B434B534B634FF
:100BC000B634B734B834B934BA34BA34BB34BC34BC
:100BD000BD34BE34BE34BF34C034C134C234C33477
:100BE000C334C434C534C634C734C734C834C93434
:100BF000CA34CB34CB34CC34CD34CE34CF34D034EF
:084000000300050008000100A7
:02400E00340973
:02401000FC3F73
:00000001FF
