:020000040000FA
:06000000000000002328AF
:08000800FD00030E8301FE0060
:100010000D1F1328061283161C0883120108A00066
:100020000D130B1D1E280612D03081070B11A30FD4
:100030001A28A3037808F907031806167E0E830012
:10004000FD0E7D0E09006400000020308400800158
:10005000840A841F272883167E308F009001831224
:10006000831680308100831260308B00831600304D
:100070008C0083128C01831640308D0083128D0119
:10008000831616309B00831285018601A1309F00E4
:10009000831640309F00FF308500EF3086008312CA
:1000A00085018601831625309C0000309D00831257
:1000B000253090008316443098008312C830980091
:1000C00083161930990083128B177F30A20076288F
:1000D000851D2210061CA210061D2211861DA211CC
:1000E000861F2212061FA212051C221364000000A4
:1000F0007F302206031D86281F1976281E08BB00A4
:10010000BC00BD001F153B08F80076288C1E762821
:100110001A08AF00A31BA401A3011818A4202618D5
:1001200076280B3024020318762831302407840007
:1001300003302402031CAF20033024060319BC2023
:100140002F088000A40A83282610A401FF302F0660
:100150000319261422082F06031926140800A408E0
:100160000319B0012F08AE000830AD00AE0C031C1F
:10017000B00AAD0BB62808002F081F393006031D42
:1001800008003108BB003208BC003308BD0008007D
:084000000300050008000000A8
:02400E00340F6D
:02401000FE3F71
:00000001FF
