:020000040000FA
:040000008A012A281F
:020008000828C6
:10001000FE00030E8301FF000A08A1008A0183127B
:1000200003138C1819280C18162823280C101014E8
:10003000232807148C10A208031DA203A308031D84
:10004000A3030710232821088A007F0E8300FE0ED9
:100050007E0E090064000000203084008001840AC4
:10006000841F2E28640000004E30920083168C14EA
:10007000FA309200831283122130900083160C1004
:100080000512F8308800C03086008117EF308700F5
:1000900083120317870183160313FB308900333063
:1000A00099006530980083129030980083160F30C5
:1000B000910060309F008312031301309F000B17E3
:1000C0008B17BF010430AA000530A900A401A501C7
:1000D0000716D824B201321797241E30A300A308B4
:1000E000031D6F288C20C830A300A308031D7528AA
:1000F0000030E800ED00C0304525EA01EB01EB0AD5
:10010000AF01A301E60111250924AC235124652187
:10011000C021342233218428AB01503084000730C1
:100120008A002B0822278A018000840AAB0A2B1E32
:100130008F28311497240800AB0150308400073019
:100140008A002B0844278A018000840AAB0A2B1EF0
:100150009F28311497240800AB01503084000730E9
:100160008A002B0833278A018000840AAB0A2B1EE1
:10017000AF283114972407252408AB0050308400A1
:100180003A232508AB00543084003A232608AB00FC
:10019000583084003A232708AB005C3084003A23AF
:1001A000B11497240800D620D620D62010108E0136
:1001B0008F01101403300F02031DDB280800831683
:1001C000981CE028831299000800AB005030AC0066
:1001D0001030AD002B0884000008BB00840A04081E
:1001E000AB002C0884003B088000840A0408AC00A3
:1001F000AD0BEA280800AB005030AC000830AD0071
:100200002B088400831600088312BB00840A0408AC
:10021000AB002C0884003B0E0F391C21DF2080002E
:10022000840A3B080F391C21DF208000840A04085F
:10023000AC00AD0B00290800BC0007308A003C0868
:1002400011278A010800AB015030840007308A0072
:100250002B0800278A018000840AAB0A2B1E26295E
:1002600031149724080068080F39023C031908006C
:1002700068080F39003C031D0800BF080319080077
:10028000BF014421AC200800FF30831618148312EC
:10029000DF202408831618108312DF202508DF20B2
:1002A0002608DF20AB0124085C2125085C212608F4
:1002B0005C212B08DF200800AC000830AD00AC0C3E
:1002C000031CAB0AAD0B5F29080068080F39013C1D
:1002D000031D0800A308031D08002708A300AF039F
:1002E000031D08002E08AF00E60A031DB429E6012D
:1002F000EA0AEB0A10306A020319EA0110306B02B5
:100300000319EB010430AB00B501B401B7016B0870
:10031000B8002623A0303507033E8400831600086A
:1003200083127F3C031D9529EB010430AB00B5011E
:10033000B401B7016A08B8002623A0303507033E90
:100340008400831600088312AE00AF007F3C031DBB
:10035000AB29EA0195292222AE08031DB4290130F8
:10036000A300AF007F30E600EC01EC21A400EC0A12
:10037000EC21A500EC0AEC21A6004421AC200800E9
:1003800068080F39023C031D08008C1ACD29981CFF
:100390000800EF011812181608008C12A3080319A0
:1003A000EF010230A30040306F0784001A08AB0051
:1003B0008000EF0A6F08063C031D08002B08033C71
:1003C0000319E429EF0108004208A4004308A5002E
:1003D0004408A600442108000430AB00B501B40174
:1003E000B7016A08B8002623A03035076C078400DF
:1003F000831600088312AD000430AB00B501B401D0
:10040000B7016B08B8002623A03035076C078400BD
:10041000831600088312BB00B9122D083B02031893
:10042000142A3B082D02B916B800B701B501B40172
:100430006608AB0026233408B91E202A2D02212A83
:100440002D0708000430AB00B501B401B7016A08FC
:10045000B8002623A0303507033E84008316000829
:100460008312AE00AF00080068080F39023C031980
:10047000080068080F39013C031D5C2AA81F08000A
:10048000A8132813280801302802031D492AC32273
:10049000A12A02302802031D4F2ACC22A12A0330B0
:1004A0002802031D552AD522A12A04302802031D43
:1004B0005B2ADE22A12AA12A68080F39003C031D0D
:1004C000A12AA81F0800A81328132808003C031914
:1004D00008002808093C031C702A2808B022A12A19
:1004E0000A302802031D772A0030B022A12A2B30BF
:1004F0002802031D9B2AA222B800B501B401B7014E
:100500000430AB002623A03035078400240883166E
:1005100080008312840A2508831680008312840ACF
:100520002608831680008312840A27088316800019
:100530008312840AA12A23302802031DA12A1B2525
:10054000A12A080030304002AB00B501B4010A30E6
:10055000B800B701262330304102B5033507080043
:10056000303EAB006E08023C031DB82AEE01112597
:100570006E08403E84002B088000EE0A4030E520E3
:1005800031159724080000304525EA01EB01EB0AFC
:10059000AF01A301E601080040304525EA01EB0167
:1005A000EB0AAF01A301E601080080304525EA010E
:1005B000EB01EB0AAF01A301E6010800C0304525BD
:1005C000EA01EB01EB0AAF01A301E60108003808DC
:1005D000B5070318B40A3708B40708003808B50788
:1005E000031CF62AB40AB4080319B30A3708B4077F
:1005F0000318B30A3608B3070800B9103808B50263
:100600000318062BB4080319B914B4033708B4024D
:10061000B91803100800B9103808B5020318192BCF
:10062000B403FF303402031D192BB3080319B914A6
:10063000B3033708B4020318212BB3080319B91404
:10064000B3033608B302B91803100800AB08031946
:100650002F2B3808B5070318B40AAB03262B080064
:10066000AB080319392B3808B502031CB403AB03DC
:10067000302B08002B08AC00303080006430AB0217
:10068000031C442B800A3F2BAB07840A30308000C8
:100690000A30AB02031C4E2B800A492BAB073030CB
:1006A0002B07840A80000800840030308000273047
:1006B000B7001030B800FD22031C602B800A5B2BB2
:1006C000E722840A303080000330B700E830B800F9
:1006D000FD22031C6D2B800A682BE722840A303030
:1006E00080000030B7006430B800FD22031C7A2B74
:1006F000800A752BE722840A303080000030B70072
:100700000A30B800FD22031C872B800A822BE722C7
:1007100030303507840A80000800840030308000C3
:100720000130B6008630B700A030B8000B23031CA0
:100730009B2B800A962BEE22840A30308000B60173
:100740002730B7001030B8000B23031CA92B800AF8
:10075000A42BEE226123080068080F39023C03191C
:100760000800CF232B08AC0028080F39AB0203196F
:10077000CE2B0130A2008B17A208031DBB2BCF2369
:100780002B082C02031DCE2B28080F392B02031D2A
:10079000CB2B2817CE2B2B08A800A8170800003059
:1007A00086050030AB0001308604FE23031DF62BC6
:1007B000003086050430AB0002308604FE23031DA2
:1007C000F62B003086050830AB0004308604FE238B
:1007D000031DF62B003086050C30AB000830860474
:1007E000FE23031DF62B0030AB00AC00AB07073037
:1007F0008A002B085527AB00AC0008000030881B8E
:100800000130081B0230881A0330081A04300038FF
:10081000080007080F3A0F39E800690203190800B9
:100820006808E90000306802031D1E2C07253115F9
:100830009724B1149724EE011125080001306802B5
:10084000031D3C2CA301E601EA010130EB0022224A
:10085000831620088312A400831621088312A500A2
:10086000831622088312A6004421AC20EE01E60183
:10087000072531159724080002306802031D4A2C11
:100880000725B1149724311597249C20EF011A08ED
:100890001A08080008000130A200A208031D4D2C10
:1008A000080068080F39023C0319080068080F396E
:1008B000003C031D832C1F119F119F149F185E2C59
:1008C0001E08AB0024020319682C3F142B08A40057
:1008D0001F1560259F149F186B2C1E08AB00250266
:1008E0000319752CBF142B08A5001F119F15602537
:1008F0009F149F18792C1E08AB0026020319832C25
:100900003F152B08A6001F159F1560259F149F18E3
:10091000872C1E08AB000310AB0C2B082702031911
:10092000942CBF152B08A7001F119F110800B211AE
:10093000321FCE243118A324B118A7243119AB24B7
:10094000B119AF2408008030B32431100800C03042
:10095000B324B11008009030B32431110800D03016
:10096000B324B111080008110810ED241030B000B4
:1009700050308400081508100008ED24840AB00BDC
:10098000BA2C0800C9245E25083008110810ED248F
:100990000800013008110810ED2408000C3008117F
:1009A0000810ED2408000D3008110810ED2408008F
:1009B0004B244B24F83088053F30ED244B243F3046
:1009C000ED245E253F30ED243830ED240C30ED244D
:1009D0000130ED240630ED240800AB00860109113A
:1009E00005122B180516AB1809152B198616AB190D
:1009F00006162B1A8615AB1A06152B1B8614AB1B75
:100A0000061488140000000088105E2508001030CD
:100A1000AC005030840020308000840AAC0B0C2DD8
:100A200008001030AC004030840020308000840A80
:100A3000AC0B162D0800A030AB00C030AC0040302D
:100A4000AD008B13031783168C18242D0313831208
:100A50002C0803178D00031383122B0884008316C0
:100A60000008831203178C0083168C130C15553065
:100A70008D00AA308D008C140C1103138312AB0A65
:100A8000AC0AAD0B222D8B170800AC00A030AB00D8
:100A90004030AD002B0884002C08031783128D0012
:100AA00083168C130C1483120C0803138316800016
:100AB0008312AB0AAC0AAD0B4A2D08004030BA00D5
:080AC0000000BA0B602D0800D4
:100E0000820720344B34653469346E3465342034C1
:100E1000463475346E346B34743469346F346E34E4
:100E2000203482073034313432343334343435347E
:100E3000363437343834393441344234433444342A
:100E4000453446348207563431342E343234333408
:100E500020342F342034313430342E343134303493
:100E60002E3430343534820772346F347434203485
:100E7000673472342034203462346C3420342034AB
:100E8000543465346D347034820720342034203477
:100E900020344734613474346534773461347934C0
:100EA00020342034203420342034820700342A3483
:100EB0000A3423343F3407340834093463340434A7
:0E0EC000053406342D340134023403342B344F
:02400E00E220AE
:10420000100000000000010000001000000001008C
:10421000000000001000000080000000000001000D
:1042200000000000000006008000000000007F0089
:00000001FF
