:020000040000FA
:06000000000000002328AF
:08000800FD00030E8301FE0060
:100010000D1F1328061283161C0883120108A00066
:100020000D130B1D1E280612D03081070B11A30FD4
:100030001A28A3037808F907031806167E0E830012
:10004000FD0E7D0E09006400000020308400800158
:10005000840A841F272883167E308F009001831224
:100060008316803081008312831616309B00831222
:1000700085018601A1309F00831640309F00FF302C
:100080008500EF30860083128501860160308B0089
:10009000831600308C0083128C01831640308D0053
:1000A00083128D01831625309C0022309D0083121F
:1000B000253090008316453098008312D030980088
:1000C0008316193099008312D7207F30A200851D36
:1000D0002210061CA210861D2211861FA211061FC7
:1000E0002212061FA212051F22138B171A08AF0037
:1000F00064000000073022060739031D90281F19ED
:10010000D7201E08BB00B100BC00B200BD00B30088
:100110001F153B08851B3D08051B3C08F800782887
:100120009818181218168C1E78281A08AF00A31BEE
:10013000A401A3011818B3202618B1280B302402FB
:100140000318782831302407840003302402031C6C
:10015000BE20033024060319CB202F088000A40AF8
:100160008928261078282610A401FF302F060319AD
:10017000261422082F06031926140800A4080319C0
:10018000B0012F08AE000830AD00AE0C031CB00A61
:10019000AD0BC52808002F081F393006031D0800C5
:1001A0003108BB003208BC003308BD000800D9305C
:0C01B000FB0064000000FB0FD9280800D1
:084000000300050008000000A8
:02400E00340F6D
:02401000FE3F71
:00000001FF
