:1000000012C02AC029C028C027C026C025C025C0CC
:1000100030C122C021C020C01FC01EC01DC01CC0D6
:100020001BC01AC019C011241FBECFEDCDBF10E0F8
:10003000A0E6B0E0ECE4F3E002C005900D92A23639
:10004000B107D9F710E0A2E6B0E001C01D92AF37CA
:10005000B107E1F792D078C1D3CF1F920F920FB6BC
:100060000F9211248F939F93EF93FF939CB18091F4
:100070006200882359F4963429F1FF91EF919F9102
:100080008F910F900FBE0F901F9018958091620076
:100090008130F1F080916200863078F7E091620063
:1000A000F0E0EF59FF4F9083809162008F5F809363
:1000B000620080916200863001F710926200109217
:1000C0006000DBCF809162008F5F80936200D5CFAC
:1000D000933529F09C3459F010926200CECF809174
:1000E00062008F5F8093620010926700C6CF80919C
:1000F00062008F5F8093620080E280936700BDCFD3
:100100009C01D89882B38C6782BB88B3807E88BB01
:100110008DE28A95F1F790E05DE210C0D89A82B343
:10012000837882BB88B38F6188BB4DE2852F8A9527
:10013000F1F79F5F993061F03695279520FDEECF5E
:10014000D89882B38C6782BB88B3807E88BBEDCFA2
:10015000D89A82B3837882BB88B38F6188BB842F9F
:100160008A95F1F7D89A82B3837882BB88B38F617E
:1001700088BB842F8A95F1F70895CF92DF92EF9292
:10018000FF920F931F938FE187BB8CE781BBD09ABF
:1001900081B78B5F81BF88E090E04FD095E0C92E9A
:1001A000809160008823E1F7F89490916300E090DB
:1001B0006400F0906500D090660040E850E020E0D8
:1001C00030E0842F8E2109F45F5F46952F5F3F4F0B
:1001D00028303105B1F740E810E020E030E0842F0E
:1001E0008F2109F41F5F46952F5F3F4F283031055F
:1001F000B1F740E800E020E030E0842F8D2109F4E1
:100200000F5F46952F5F3F4F28303105B1F7150F2F
:10021000892F90E0916074DF8E2D90E071DF8F2D3B
:1002200090E06EDF8D2D90E06BDF812F800F90E0EE
:1002300067DFC09260007894B3CF9C0110927C007D
:1002400010927D0084E180937E002115310581F0BC
:1002500082E08BB988E28AB986E083B929B932B9DC
:10026000899A8898909A8AB180698AB97894089511
:10027000FFCF1F920F920FB60F9211248F939F936F
:10028000EF93FF9380917E008431F8F490917D008C
:10029000E92FF0E0E859FF4F80818CB99F5F909380
:1002A0007D0080917E008F5F80937E0080917D0035
:1002B000843110F010927D00FF91EF919F918F910A
:1002C0000F900FBE0F901F9018955598F5CF982F4F
:1002D00080917E008823D1F0F89480917C00E82FF3
:1002E000F0E0E859FF4F90838F5F80937C0080910E
:1002F0007C00843110F010927C0080917E0081504F
:1003000080937E008F5F843111F078940895559A20
:100310007894FCCF1F93182F82958F708A3050F4F9
:10032000805DD5DF812F8F708A3050F0895CCFDF00
:100330001F910895895CCBDF812F8F708A30B0F7D1
:0C034000805DC5DF1F910895F894FFCF89
:02034C000500AA
:00000001FF
