:020000040000FA
:060000000000000035289D
:08000800FD00030E8301FE0060
:100010000B114008C30703180514031C0510410801
:10002000C40703188514031C85104208C50703186C
:100030000515031C0511A30A0319A30384308107C6
:1000400071080102031805107208010203188510D7
:10005000730801020318051107300505031D202848
:100060007E0E8300FD0E7D0E09006400000020302E
:1000700084008001840A841F392883167E308F0013
:10008000900183128316803081008312831618300A
:100090009B0083128501860199309F0083164030B2
:1000A0009F00F8308500FF308600831285018601AD
:1000B00020308B00831600308C0083128C01831655
:1000C00000308D0083128D01831607309C000030B4
:1000D0009D008312253090008316453098008312CE
:1000E000D030980083164030990083128C217F30E5
:1000F000A200061C2210861CA210861D2211061EBC
:10010000A211861E2212061FA212861F22138B170F
:100110001A08AF000830F1000830F2000830F30090
:10012000640000007F3022067F39031D45291F1916
:100130008C21BC01BB01BD0183161E0883129E18D1
:10014000A7281E18A528BB00AC28BC00AC28BD0001
:100150001E1CAC28BB00BC001F1520219028843039
:10016000F100F200F300CD01CC018316C0309F00F6
:10017000831299309F00FF30C600F10AE03071020F
:100180000318D0288C21CD0FC22814218316553096
:100190001E028312031CBD28C601FF30C7001821B0
:1001A000F20AE03072020318E3288C21CD0FD52823
:1001B0001421831655301E028312031CD028C70158
:1001C000FF30C8001821F30AE03073020318E32857
:1001D0008C21CD0FE8281421831655301E0283127E
:1001E000031CE328C8018316C0309F008312A1308E
:1001F0009F000800FF30C8001821C801FF30C70069
:100200001821C701FF30C6001821C6010800FF30C1
:10021000C8001821C801FF30C7001821C701FF30EE
:10022000C6001821C60108001F151F19152908004E
:10023000CC018C21CD0F1929CC0A4C1E192908009C
:1002400005308A003B08FF248A01C60005308A0079
:100250003C08FF248A01C70005308A003D08FF24BE
:100260008A01C80007308A003B08FF268A01C900BE
:1002700007308A003C08FF268A01CA0007308A003E
:100280003D08FF268A01CB0008009818181218169E
:100290008C1E90281A08AF00A31BA401A3011818F4
:1002A0006821261866290B30240203189028313063
:1002B0002407840003302402031C73210330240626
:1002C000031980212F088000A40AAD282610902849
:1002D0002610A401FF302F060319261422082F062A
:1002E000031926140800A4080319B0012F08AE0052
:1002F0000830AD00AE0C031CB00AAD0B7A29080023
:100300002F081F393006031D08003108BB003208D2
:10031000BC003308BD0008009E30BF006400000030
:06032000BF0F8E2908004A
:0209FE0082076E
:100A000010341034113412341334143415341634B1
:100A10001734183419341A341B341C341D341E3462
:100A20001F341F3420342134223423342434253419
:100A300026342734283429342A342B342C342D34CA
:100A40002E342E342F343034313432343334343481
:100A5000353436343734383439343A343B343C3432
:100A60003D343D343E343F344034413442344334E9
:100A70004434453446344734483449344A344B349A
:100A80004C344C344D344E344F3450345134523451
:100A900053345434553456345734583459345A3402
:100AA0005B345B345C345D345E345F3460346134B9
:100AB000623463346434653466346734683469346A
:100AC0006A346A346B346C346D346E346F34703421
:100AD00071347234733474347534763477347834D2
:100AE000793479347A347B347C347D347E347F3489
:100AF000803481348234833484348534863487343A
:100B00008834883489348A348B348C348D348E34F0
:100B10008F349034913492349334943495349634A1
:100B200097349734983499349A349B349C349D3458
:100B30009E349F34A034A134A234A334A434A53409
:100B4000A634A634A734A834A934AA34AB34AC34C0
:100B5000AD34AE34AF34B034B134B234B334B43471
:100B6000B534B534B634B734B834B934BA34BB3428
:100B7000BC34BD34BE34BF34C034C134C234C334D9
:100B8000C434C434C534C634C734C834C934CA3490
:100B9000CB34CC34CD34CE34CF34D034D134D23441
:100BA000D334D334D434D534D634D734D834D934F8
:100BB000DA34DB34DC34DD34DE34DF34E034E134A9
:100BC000E234E234E334E434E534E634E734E83460
:100BD000E934EA34EB34EC34ED34EE34EF34F03411
:100BE000F134F134F234F334F434F534F634F734C8
:100BF000F834F934FA34FB34FC34FD34FE34FF3479
:020DFE0082076A
:100E00000034013402340334043404340534063429
:100E100007340834083409340A340B340C340D34E4
:100E20000D340E340F3410341134113412341334A1
:100E300014341534153416341734183419341A345C
:100E40001A341B341C341D341E341E341F34203419
:100E500021342234223423342434253426342734D4
:100E60002734283429342A342B342B342C342D3491
:100E70002E342F342F34303431343234333434344C
:100E800034343534363437343834383439343A3409
:100E90003B343C343C343D343E343F3440344134C4
:100EA0004134423443344434453445344634473481
:100EB0004834493449344A344B344C344D344E343C
:100EC0004E344F34503451345234523453345434F9
:100ED0005534563456345734583459345A345B34B4
:100EE0005B345C345D345E345F345F346034613471
:100EF000623463346334643465346634673468342C
:100F0000683469346A346B346C346C346D346E34E8
:100F10006F347034703471347234733474347534A3
:100F20007534763477347834793479347A347B3460
:100F30007C347D347D347E347F348034813482341B
:100F400082348334843485348634863487348834D8
:100F500089348A348A348B348C348D348E348F3493
:100F60008F34903491349234933493349434953450
:100F7000963497349734983499349A349B349C340B
:100F80009C349D349E349F34A034A034A134A234C8
:100F9000A334A434A434A534A634A734A834A93483
:100FA000A934AA34AB34AC34AD34AD34AE34AF3440
:100FB000B034B134B134B234B334B434B534B634FB
:100FC000B634B734B834B934BA34BA34BB34BC34B8
:100FD000BD34BE34BE34BF34C034C134C234C33473
:100FE000C334C434C534C634C734C734C834C93430
:100FF000CA34CB34CB34CC34CD34CE34CF34D034EB
:084000000300050009000000A7
:02400E00340F6D
:02401000FE3F71
:00000001FF
