:020000040000FA
:040000008A01282821
:020008000828C6
:10001000A000030E8301FF000A08A1008A018C18CA
:1000200017280C18142821280C1010142128071444
:100030008C10A208031DA203A308031DA30307102D
:10004000212821088A007F0E8300A00E200E0900BF
:1000500064000000203084008001840A841F2C2862
:10006000640000004E30920083168C14FA30920027
:10007000831283122130900083160C100512F83081
:100080008800C03086008117EE3087008312031786
:10009000870183160313FB308900333099006530E4
:1000A000980083128030980083160F3091006030E2
:1000B0009F008312031301309F000B178B17BF01A2
:1000C0000430AA000530A900A401A50107160623E3
:1000D000B2013217C5221E30A300A308031D6D28EC
:1000E0007E20C830A300A308031D73289A22102184
:1000F0000230A200A208031D7A287628AE015030F3
:10010000840007308A002E0822278A018000840A92
:10011000AE0A2E1E81283114C5220800AE015030CF
:10012000840007308A002E0833278A018000840A61
:10013000AE0A2E1E91282408AE0051308400A7215B
:100140002508AE0056308400A7212608AE005B309B
:100150008400A7213114C5220800B020B020B020AF
:1001600010108E018F01101403300F02031DB528EB
:1001700008008316981CBA28831299000800AE0064
:100180005030AF001030B0002E08840083160008F5
:100190008312BB00B920840A0408AE002F08840033
:1001A0003B088000840A0408AF00B00BC428080094
:1001B000AE005030AF000830B0002E088400831627
:1001C00000088312BB00840A0408AE002F088400D4
:1001D0003B0E0F39F920B9208000840A3B080F3903
:1001E000F920B9208000840A0408AF00B00BDD2894
:1001F0000800BC0007308A003C0811278A0108006B
:10020000AE015030840007308A002E0800278A0192
:100210008000840AAE0A2E1E03293114C52208006C
:10022000BF0803190800BF0117218E200800FF3006
:10023000831618148312B920240883161810831209
:10024000B9202508B9202608B920AE0124082F219D
:1002500025082F2126082F212E08B9200800AF00DD
:100260000830B000AF0C031CAE0AB00B32290800F6
:10027000A81F080049080F39003C031D0800A813F7
:1002800028080F39AE00AE08031908000A302E0204
:10029000031808003523B1143115B115C5222E08F5
:1002A000A900AA00AA0308004508C2070318C10A4A
:1002B0004408C10708004508C207031C6329C10A96
:1002C000C1080319C00A4408C1070318C00A43083B
:1002D000C0070800C6104508C20203187329C108E8
:1002E0000319C614C1034408C102C618031008004C
:1002F000C6104508C20203188629C103FF30410217
:10030000031D8629C0080319C614C0034408C1028E
:1003100003188E29C0080319C614C0034308C0027D
:10032000C61803100800AE0803199C294508C20727
:100330000318C10AAE0393290800AE080319A629C1
:100340004508C202031CC103AE039D2908002E0804
:10035000AF00303080006430AE02031CB129800A47
:10036000AC29AE07840A303080000A30AE02031C8C
:10037000BB29800AB629AE0730302E07840A8000D8
:1003800008008400303080002730C4001030C500E1
:100390006A21031CCD29800AC8295421840A3030DF
:1003A00080000330C400E830C5006A21031CDA294C
:1003B000800AD5295421840A303080000030C400DE
:1003C0006430C5006A21031CE729800AE229542110
:1003D000840A303080000030C4000A30C5006A2131
:1003E000031CF429800AEF29542130304207840A83
:1003F000800008008400303080000130C300863067
:10040000C400A030C5007821031C082A800A032AF2
:100410005B21840A30308000C3012730C4001030D3
:10042000C5007821031C162A800A112A5B21CE21DF
:10043000080032222E08AF000130A2008B17A2085C
:10044000031D1E2A32222E082F02031D312A2808DE
:100450000F392E02031D2E2A2817312A2E08A80034
:10046000A81708000F30E6040030AE0066106222C4
:100470005822031D562A0330AE006614E61062228D
:100480005822031D562A0630AE00E6146611622279
:100490005822031D562A0930AE006615E611622265
:1004A0005822031D562A0030AE00AF00AE070800E8
:1004B00069220030671D0130E71C0230671C0330E1
:1004C000003808006608880006308704F830870581
:1004D00008008316FF308800831203130530870459
:1004E0000808E700F0308705831600308800831283
:1004F000031308006922670E0F3A0F39C9004A0238
:10050000031908004908CA0000304902031D892A5E
:10051000080001304902031D8E2A080002304902FA
:10052000031D932A080008000130A200A208031D41
:10053000962A08001F119F119F149F189D2A1E08BC
:10054000AE0024020319A72A3F142E08A4001F1589
:1005500041239F149F18AA2A1E08AE0025020319E2
:10056000B42ABF142E08A5001F119F1541239F1404
:100570009F18B82A1E08AE0026020319C22A3F158A
:100580002E08A6001F119F110800B211321FFC2275
:100590003118D122B118D5223119D922B119DD2251
:1005A00008008030E12231100800C030E122B11093
:1005B00008009030E12231110800D030E122B11161
:1005C0000800081108101B231030B00050308400C0
:1005D0000815081000081B23840AB00BE82A08003D
:1005E000F7223F230830081108101B2308000130B0
:1005F000081108101B2308000C30081108101B23D9
:1006000008000D30081108101B23080094229422C2
:10061000F83088053F301B2394223F301B233F23B3
:100620003F301B2338301B230C301B2301301B238E
:1006300006301B230800AE008601091105122E1892
:100640000516AE1809152E198616AE1906162E1A9D
:100650008615AE1A06152E1B8614AE1B06148814BA
:100660000000000088103F2308001030AF00503019
:10067000840020308000840AAF0B3A2B0800403001
:0A068000C7000000C70B412B080063
:100E0000820720344B34653469346E3465342034C1
:100E1000463475346E346B34743469346F346E34E4
:100E2000203482073034313432343334343435347E
:100E3000363437343834393441344234433444342A
:100E4000453446348207563431342E34303430340D
:100E500020342F342034323432342E343034393488
:100E60002E34303435348207523430343034303418
:100E70002034473430343034303420344234303449
:080E80003034303420342034FA
:02400E00E220AE
:00000001FF
